{
  "address": "0x96443802a545F469f51CE83B61C6d3ad4e9DA8d8",
  "abi": [
    {
      "inputs": [
        {
          "internalType": "address",
          "name": "_manager",
          "type": "address"
        },
        {
          "internalType": "uint256",
          "name": "_version",
          "type": "uint256"
        },
        {
          "internalType": "address",
          "name": "_ethRwandaHackerOnboardAddress",
          "type": "address"
        },
        {
          "internalType": "address",
          "name": "_faucetWalletAddress",
          "type": "address"
        }
      ],
      "stateMutability": "nonpayable",
      "type": "constructor"
    },
    {
      "inputs": [],
      "name": "AccessControlBadConfirmation",
      "type": "error"
    },
    {
      "inputs": [
        {
          "internalType": "uint48",
          "name": "schedule",
          "type": "uint48"
        }
      ],
      "name": "AccessControlEnforcedDefaultAdminDelay",
      "type": "error"
    },
    {
      "inputs": [],
      "name": "AccessControlEnforcedDefaultAdminRules",
      "type": "error"
    },
    {
      "inputs": [
        {
          "internalType": "address",
          "name": "defaultAdmin",
          "type": "address"
        }
      ],
      "name": "AccessControlInvalidDefaultAdmin",
      "type": "error"
    },
    {
      "inputs": [
        {
          "internalType": "address",
          "name": "account",
          "type": "address"
        },
        {
          "internalType": "bytes32",
          "name": "neededRole",
          "type": "bytes32"
        }
      ],
      "name": "AccessControlUnauthorizedAccount",
      "type": "error"
    },
    {
      "inputs": [],
      "name": "ETHRwHackerOnboardNotFound",
      "type": "error"
    },
    {
      "inputs": [],
      "name": "ETHTransferFailed",
      "type": "error"
    },
    {
      "inputs": [],
      "name": "ExceedsMaxLocks",
      "type": "error"
    },
    {
      "inputs": [],
      "name": "LockAddressNotFound",
      "type": "error"
    },
    {
      "inputs": [],
      "name": "LockAlreadyAdded",
      "type": "error"
    },
    {
      "inputs": [],
      "name": "NotFaucetAdmin",
      "type": "error"
    },
    {
      "inputs": [],
      "name": "NotFaucetManager",
      "type": "error"
    },
    {
      "inputs": [],
      "name": "NotWithdrawalRecorder",
      "type": "error"
    },
    {
      "inputs": [
        {
          "internalType": "uint8",
          "name": "bits",
          "type": "uint8"
        },
        {
          "internalType": "uint256",
          "name": "value",
          "type": "uint256"
        }
      ],
      "name": "SafeCastOverflowedUintDowncast",
      "type": "error"
    },
    {
      "anonymous": false,
      "inputs": [],
      "name": "DefaultAdminDelayChangeCanceled",
      "type": "event"
    },
    {
      "anonymous": false,
      "inputs": [
        {
          "indexed": false,
          "internalType": "uint48",
          "name": "newDelay",
          "type": "uint48"
        },
        {
          "indexed": false,
          "internalType": "uint48",
          "name": "effectSchedule",
          "type": "uint48"
        }
      ],
      "name": "DefaultAdminDelayChangeScheduled",
      "type": "event"
    },
    {
      "anonymous": false,
      "inputs": [],
      "name": "DefaultAdminTransferCanceled",
      "type": "event"
    },
    {
      "anonymous": false,
      "inputs": [
        {
          "indexed": true,
          "internalType": "address",
          "name": "newAdmin",
          "type": "address"
        },
        {
          "indexed": false,
          "internalType": "uint48",
          "name": "acceptSchedule",
          "type": "uint48"
        }
      ],
      "name": "DefaultAdminTransferScheduled",
      "type": "event"
    },
    {
      "anonymous": false,
      "inputs": [
        {
          "indexed": false,
          "internalType": "uint256",
          "name": "version",
          "type": "uint256"
        },
        {
          "indexed": true,
          "internalType": "address",
          "name": "onboardAddress",
          "type": "address"
        }
      ],
      "name": "ETHRwETHRwandaHackerOnboardVersionSet",
      "type": "event"
    },
    {
      "anonymous": false,
      "inputs": [
        {
          "indexed": true,
          "internalType": "address",
          "name": "to",
          "type": "address"
        },
        {
          "indexed": false,
          "internalType": "uint256",
          "name": "amount",
          "type": "uint256"
        }
      ],
      "name": "ETHRwETHTransfer",
      "type": "event"
    },
    {
      "anonymous": false,
      "inputs": [
        {
          "indexed": true,
          "internalType": "address",
          "name": "lockAddress",
          "type": "address"
        }
      ],
      "name": "ETHRwLockAdded",
      "type": "event"
    },
    {
      "anonymous": false,
      "inputs": [
        {
          "indexed": true,
          "internalType": "address",
          "name": "lockAddress",
          "type": "address"
        }
      ],
      "name": "ETHRwLockRemoved",
      "type": "event"
    },
    {
      "anonymous": false,
      "inputs": [
        {
          "indexed": true,
          "internalType": "address",
          "name": "user",
          "type": "address"
        },
        {
          "indexed": false,
          "internalType": "uint256",
          "name": "timestamp",
          "type": "uint256"
        }
      ],
      "name": "ETHRwWithdrawalRecorded",
      "type": "event"
    },
    {
      "anonymous": false,
      "inputs": [
        {
          "indexed": true,
          "internalType": "address",
          "name": "account",
          "type": "address"
        }
      ],
      "name": "ETHRwWithdrawalRecorderRoleGranted",
      "type": "event"
    },
    {
      "anonymous": false,
      "inputs": [
        {
          "indexed": true,
          "internalType": "address",
          "name": "account",
          "type": "address"
        }
      ],
      "name": "ETHRwWithdrawalRecorderRoleRevoked",
      "type": "event"
    },
    {
      "anonymous": false,
      "inputs": [
        {
          "indexed": true,
          "internalType": "bytes32",
          "name": "role",
          "type": "bytes32"
        },
        {
          "indexed": true,
          "internalType": "bytes32",
          "name": "previousAdminRole",
          "type": "bytes32"
        },
        {
          "indexed": true,
          "internalType": "bytes32",
          "name": "newAdminRole",
          "type": "bytes32"
        }
      ],
      "name": "RoleAdminChanged",
      "type": "event"
    },
    {
      "anonymous": false,
      "inputs": [
        {
          "indexed": true,
          "internalType": "bytes32",
          "name": "role",
          "type": "bytes32"
        },
        {
          "indexed": true,
          "internalType": "address",
          "name": "account",
          "type": "address"
        },
        {
          "indexed": true,
          "internalType": "address",
          "name": "sender",
          "type": "address"
        }
      ],
      "name": "RoleGranted",
      "type": "event"
    },
    {
      "anonymous": false,
      "inputs": [
        {
          "indexed": true,
          "internalType": "bytes32",
          "name": "role",
          "type": "bytes32"
        },
        {
          "indexed": true,
          "internalType": "address",
          "name": "account",
          "type": "address"
        },
        {
          "indexed": true,
          "internalType": "address",
          "name": "sender",
          "type": "address"
        }
      ],
      "name": "RoleRevoked",
      "type": "event"
    },
    {
      "inputs": [],
      "name": "COOL_DOWN",
      "outputs": [
        {
          "internalType": "uint256",
          "name": "",
          "type": "uint256"
        }
      ],
      "stateMutability": "view",
      "type": "function"
    },
    {
      "inputs": [],
      "name": "DEFAULT_ADMIN_ROLE",
      "outputs": [
        {
          "internalType": "bytes32",
          "name": "",
          "type": "bytes32"
        }
      ],
      "stateMutability": "view",
      "type": "function"
    },
    {
      "inputs": [
        {
          "internalType": "uint256",
          "name": "",
          "type": "uint256"
        }
      ],
      "name": "ETHRwandaHackerOnboardVersions",
      "outputs": [
        {
          "internalType": "address",
          "name": "",
          "type": "address"
        }
      ],
      "stateMutability": "view",
      "type": "function"
    },
    {
      "inputs": [],
      "name": "FAUCET_MANAGER_ROLE",
      "outputs": [
        {
          "internalType": "bytes32",
          "name": "",
          "type": "bytes32"
        }
      ],
      "stateMutability": "view",
      "type": "function"
    },
    {
      "inputs": [],
      "name": "MANAGER",
      "outputs": [
        {
          "internalType": "address",
          "name": "",
          "type": "address"
        }
      ],
      "stateMutability": "view",
      "type": "function"
    },
    {
      "inputs": [],
      "name": "MAX_LOCKS",
      "outputs": [
        {
          "internalType": "uint256",
          "name": "",
          "type": "uint256"
        }
      ],
      "stateMutability": "view",
      "type": "function"
    },
    {
      "inputs": [],
      "name": "VERSION",
      "outputs": [
        {
          "internalType": "uint256",
          "name": "",
          "type": "uint256"
        }
      ],
      "stateMutability": "view",
      "type": "function"
    },
    {
      "inputs": [],
      "name": "WITHDRAWAL_RECORDER_ROLE",
      "outputs": [
        {
          "internalType": "bytes32",
          "name": "",
          "type": "bytes32"
        }
      ],
      "stateMutability": "view",
      "type": "function"
    },
    {
      "inputs": [],
      "name": "acceptDefaultAdminTransfer",
      "outputs": [],
      "stateMutability": "nonpayable",
      "type": "function"
    },
    {
      "inputs": [
        {
          "internalType": "address",
          "name": "_lockAddress",
          "type": "address"
        }
      ],
      "name": "addLock",
      "outputs": [],
      "stateMutability": "nonpayable",
      "type": "function"
    },
    {
      "inputs": [
        {
          "internalType": "address[]",
          "name": "_lockAddresses",
          "type": "address[]"
        }
      ],
      "name": "batchAddLocks",
      "outputs": [],
      "stateMutability": "nonpayable",
      "type": "function"
    },
    {
      "inputs": [
        {
          "internalType": "address",
          "name": "newAdmin",
          "type": "address"
        }
      ],
      "name": "beginDefaultAdminTransfer",
      "outputs": [],
      "stateMutability": "nonpayable",
      "type": "function"
    },
    {
      "inputs": [],
      "name": "cancelDefaultAdminTransfer",
      "outputs": [],
      "stateMutability": "nonpayable",
      "type": "function"
    },
    {
      "inputs": [
        {
          "internalType": "uint48",
          "name": "newDelay",
          "type": "uint48"
        }
      ],
      "name": "changeDefaultAdminDelay",
      "outputs": [],
      "stateMutability": "nonpayable",
      "type": "function"
    },
    {
      "inputs": [],
      "name": "defaultAdmin",
      "outputs": [
        {
          "internalType": "address",
          "name": "",
          "type": "address"
        }
      ],
      "stateMutability": "view",
      "type": "function"
    },
    {
      "inputs": [],
      "name": "defaultAdminDelay",
      "outputs": [
        {
          "internalType": "uint48",
          "name": "",
          "type": "uint48"
        }
      ],
      "stateMutability": "view",
      "type": "function"
    },
    {
      "inputs": [],
      "name": "defaultAdminDelayIncreaseWait",
      "outputs": [
        {
          "internalType": "uint48",
          "name": "",
          "type": "uint48"
        }
      ],
      "stateMutability": "view",
      "type": "function"
    },
    {
      "inputs": [],
      "name": "faucetWalletAddress",
      "outputs": [
        {
          "internalType": "address",
          "name": "",
          "type": "address"
        }
      ],
      "stateMutability": "view",
      "type": "function"
    },
    {
      "inputs": [
        {
          "internalType": "address",
          "name": "user",
          "type": "address"
        }
      ],
      "name": "getFirstValidKeyLockAddress",
      "outputs": [
        {
          "internalType": "address",
          "name": "",
          "type": "address"
        }
      ],
      "stateMutability": "view",
      "type": "function"
    },
    {
      "inputs": [
        {
          "internalType": "uint256",
          "name": "_version",
          "type": "uint256"
        },
        {
          "internalType": "address",
          "name": "_hackerAddress",
          "type": "address"
        }
      ],
      "name": "getIsHackerInitialized",
      "outputs": [
        {
          "internalType": "bool",
          "name": "isInitialized_",
          "type": "bool"
        }
      ],
      "stateMutability": "view",
      "type": "function"
    },
    {
      "inputs": [],
      "name": "getLockAddresses",
      "outputs": [
        {
          "internalType": "address[]",
          "name": "",
          "type": "address[]"
        }
      ],
      "stateMutability": "view",
      "type": "function"
    },
    {
      "inputs": [
        {
          "internalType": "bytes32",
          "name": "role",
          "type": "bytes32"
        }
      ],
      "name": "getRoleAdmin",
      "outputs": [
        {
          "internalType": "bytes32",
          "name": "",
          "type": "bytes32"
        }
      ],
      "stateMutability": "view",
      "type": "function"
    },
    {
      "inputs": [
        {
          "internalType": "bytes32",
          "name": "role",
          "type": "bytes32"
        },
        {
          "internalType": "address",
          "name": "account",
          "type": "address"
        }
      ],
      "name": "grantRole",
      "outputs": [],
      "stateMutability": "nonpayable",
      "type": "function"
    },
    {
      "inputs": [
        {
          "internalType": "address",
          "name": "account",
          "type": "address"
        }
      ],
      "name": "grantWithdrawalRecorderRole",
      "outputs": [],
      "stateMutability": "nonpayable",
      "type": "function"
    },
    {
      "inputs": [
        {
          "internalType": "bytes32",
          "name": "role",
          "type": "bytes32"
        },
        {
          "internalType": "address",
          "name": "account",
          "type": "address"
        }
      ],
      "name": "hasRole",
      "outputs": [
        {
          "internalType": "bool",
          "name": "",
          "type": "bool"
        }
      ],
      "stateMutability": "view",
      "type": "function"
    },
    {
      "inputs": [
        {
          "internalType": "address",
          "name": "user",
          "type": "address"
        }
      ],
      "name": "hasValidKey",
      "outputs": [
        {
          "internalType": "bool",
          "name": "",
          "type": "bool"
        }
      ],
      "stateMutability": "view",
      "type": "function"
    },
    {
      "inputs": [
        {
          "internalType": "address",
          "name": "user",
          "type": "address"
        }
      ],
      "name": "isAbleToWithdraw",
      "outputs": [
        {
          "internalType": "bool",
          "name": "",
          "type": "bool"
        }
      ],
      "stateMutability": "view",
      "type": "function"
    },
    {
      "inputs": [
        {
          "internalType": "uint256",
          "name": "tokenId",
          "type": "uint256"
        }
      ],
      "name": "isTokenIdAbleToWithdraw",
      "outputs": [
        {
          "internalType": "bool",
          "name": "",
          "type": "bool"
        }
      ],
      "stateMutability": "view",
      "type": "function"
    },
    {
      "inputs": [
        {
          "internalType": "address",
          "name": "",
          "type": "address"
        }
      ],
      "name": "lastWithdrawal",
      "outputs": [
        {
          "internalType": "uint256",
          "name": "",
          "type": "uint256"
        }
      ],
      "stateMutability": "view",
      "type": "function"
    },
    {
      "inputs": [
        {
          "internalType": "uint256",
          "name": "",
          "type": "uint256"
        }
      ],
      "name": "lastWithdrawalByTokenId",
      "outputs": [
        {
          "internalType": "uint256",
          "name": "",
          "type": "uint256"
        }
      ],
      "stateMutability": "view",
      "type": "function"
    },
    {
      "inputs": [],
      "name": "owner",
      "outputs": [
        {
          "internalType": "address",
          "name": "",
          "type": "address"
        }
      ],
      "stateMutability": "view",
      "type": "function"
    },
    {
      "inputs": [],
      "name": "pendingDefaultAdmin",
      "outputs": [
        {
          "internalType": "address",
          "name": "newAdmin",
          "type": "address"
        },
        {
          "internalType": "uint48",
          "name": "schedule",
          "type": "uint48"
        }
      ],
      "stateMutability": "view",
      "type": "function"
    },
    {
      "inputs": [],
      "name": "pendingDefaultAdminDelay",
      "outputs": [
        {
          "internalType": "uint48",
          "name": "newDelay",
          "type": "uint48"
        },
        {
          "internalType": "uint48",
          "name": "schedule",
          "type": "uint48"
        }
      ],
      "stateMutability": "view",
      "type": "function"
    },
    {
      "inputs": [
        {
          "internalType": "address",
          "name": "_user",
          "type": "address"
        },
        {
          "internalType": "uint256",
          "name": "_tokenId",
          "type": "uint256"
        }
      ],
      "name": "recordWithdrawal",
      "outputs": [],
      "stateMutability": "nonpayable",
      "type": "function"
    },
    {
      "inputs": [
        {
          "internalType": "address",
          "name": "_lockAddress",
          "type": "address"
        }
      ],
      "name": "removeLock",
      "outputs": [],
      "stateMutability": "nonpayable",
      "type": "function"
    },
    {
      "inputs": [
        {
          "internalType": "bytes32",
          "name": "role",
          "type": "bytes32"
        },
        {
          "internalType": "address",
          "name": "account",
          "type": "address"
        }
      ],
      "name": "renounceRole",
      "outputs": [],
      "stateMutability": "nonpayable",
      "type": "function"
    },
    {
      "inputs": [
        {
          "internalType": "bytes32",
          "name": "role",
          "type": "bytes32"
        },
        {
          "internalType": "address",
          "name": "account",
          "type": "address"
        }
      ],
      "name": "revokeRole",
      "outputs": [],
      "stateMutability": "nonpayable",
      "type": "function"
    },
    {
      "inputs": [
        {
          "internalType": "address",
          "name": "account",
          "type": "address"
        }
      ],
      "name": "revokeWithdrawalRecorderRole",
      "outputs": [],
      "stateMutability": "nonpayable",
      "type": "function"
    },
    {
      "inputs": [],
      "name": "rollbackDefaultAdminDelay",
      "outputs": [],
      "stateMutability": "nonpayable",
      "type": "function"
    },
    {
      "inputs": [
        {
          "internalType": "uint256",
          "name": "_newCoolDown",
          "type": "uint256"
        }
      ],
      "name": "setCoolDown",
      "outputs": [],
      "stateMutability": "nonpayable",
      "type": "function"
    },
    {
      "inputs": [
        {
          "internalType": "uint256",
          "name": "_version",
          "type": "uint256"
        },
        {
          "internalType": "address",
          "name": "_ethRwandaHackerOnboardAddress",
          "type": "address"
        }
      ],
      "name": "setETHRwandaHackerOnboardAtVersion",
      "outputs": [],
      "stateMutability": "nonpayable",
      "type": "function"
    },
    {
      "inputs": [
        {
          "internalType": "address",
          "name": "_newFaucetWalletAddress",
          "type": "address"
        }
      ],
      "name": "setFaucetWalletAddress",
      "outputs": [],
      "stateMutability": "nonpayable",
      "type": "function"
    },
    {
      "inputs": [
        {
          "internalType": "bytes32",
          "name": "_role",
          "type": "bytes32"
        },
        {
          "internalType": "bytes32",
          "name": "_adminRole",
          "type": "bytes32"
        }
      ],
      "name": "setRoleAdmin",
      "outputs": [],
      "stateMutability": "nonpayable",
      "type": "function"
    },
    {
      "inputs": [
        {
          "internalType": "bytes4",
          "name": "interfaceId",
          "type": "bytes4"
        }
      ],
      "name": "supportsInterface",
      "outputs": [
        {
          "internalType": "bool",
          "name": "",
          "type": "bool"
        }
      ],
      "stateMutability": "view",
      "type": "function"
    },
    {
      "inputs": [],
      "name": "totalRequests",
      "outputs": [
        {
          "internalType": "uint256",
          "name": "",
          "type": "uint256"
        }
      ],
      "stateMutability": "view",
      "type": "function"
    },
    {
      "inputs": [
        {
          "internalType": "address",
          "name": "_to",
          "type": "address"
        }
      ],
      "name": "withdraw",
      "outputs": [],
      "stateMutability": "nonpayable",
      "type": "function"
    },
    {
      "stateMutability": "payable",
      "type": "receive"
    }
  ],
  "transactionHash": "0x4d01bcd691cd04431421178e79f4b12e9345aa2eaf8332b6ee01a4200ed8c891",
  "args": [
    "0xa0c03bE2Cf62f171e29e0d8766677cF4c50d58F8",
    1,
    "0x6a36A9F5aDF57655E8806bE5675C8c3Be55F92cF",
    "0xd443188B33a13A24F63AC3A49d54DB97cf64349A"
  ],
  "numDeployments": 2,
  "solcInputHash": "244ea73f439aec1b08bf0978d03b09a0",
  "bytecode": "0x60a06040526201518060035560006004553480156200001d57600080fd5b506040516200232438038062002324833981016040819052620000409162000226565b6000846001600160a01b0381166200007257604051636116401160e11b81526000600482015260240160405180910390fd5b600180546001600160d01b0316600160d01b65ffffffffffff8516021790556200009e600082620000e5565b5050506001600160a01b0393841660805260009283526009602052604090922080549184166001600160a01b0319928316179055600680549290931691161790556200027a565b60008262000146576000620001026002546001600160a01b031690565b6001600160a01b0316146200012a57604051631fe1e13d60e11b815260040160405180910390fd5b600280546001600160a01b0319166001600160a01b0384161790555b6200015283836200015b565b90505b92915050565b6000828152602081815260408083206001600160a01b038516845290915281205460ff1662000200576000838152602081815260408083206001600160a01b03861684529091529020805460ff19166001179055620001b73390565b6001600160a01b0316826001600160a01b0316847f2f8788117e7eff1d82e926ec794901d17c78024a50270940304540a733656f0d60405160405180910390a450600162000155565b50600062000155565b80516001600160a01b03811681146200022157600080fd5b919050565b600080600080608085870312156200023d57600080fd5b620002488562000209565b9350602085015192506200025f6040860162000209565b91506200026f6060860162000209565b905092959194509250565b60805161208e620002966000396000610366015261208e6000f3fe6080604052600436106102815760003560e01c80638a3311b31161014f578063cb599863116100c1578063d547741f1161007a578063d547741f146107f7578063d602b9fd14610817578063d9147bcb1461082c578063ebe6c9ff1461084c578063fa17bb7514610879578063ffa1ad741461089957600080fd5b8063cb5998631461073b578063cc8463c81461075b578063cd93ceff14610770578063cefc142914610792578063cf6eefb7146107a7578063d3229343146107e257600080fd5b8063a1eda53c11610113578063a1eda53c1461067c578063a217fddf146106b0578063abd6dfb0146106c5578063b8fcf782146106e5578063c064a9fe146106fb578063c522f74c1461071b57600080fd5b80638a3311b3146105db5780638aea61dc146105fb5780638da5cb5b1461061157806391d14854146106265780639dba5ec81461064657600080fd5b806336568abe116101f3578063634e93da116101ac578063634e93da1461051d578063649a5ec71461053d57806378dfdc0e1461055d5780637c56687a1461057d57806384ef8ffc1461059d578063882f327b146105bb57600080fd5b806336568abe14610450578063407fe72f1461047057806347fcae83146104905780634a387bef146104bd57806351cff8d9146104dd5780635632671e146104fd57600080fd5b80631b2df850116102455780631b2df850146103545780631e4e0091146103a0578063248a9ca3146103c0578063274b741e146103f05780632baf7e0e146104105780632f2ff15d1461043057600080fd5b806301ffc9a71461028d578063022d63fb146102c25780630aa6220b146102eb5780630f4d741a1461030257806312c514751461033257600080fd5b3661028857005b600080fd5b34801561029957600080fd5b506102ad6102a8366004611d54565b6108ae565b60405190151581526020015b60405180910390f35b3480156102ce57600080fd5b50620697805b60405165ffffffffffff90911681526020016102b9565b3480156102f757600080fd5b506103006108d9565b005b34801561030e57600080fd5b5061032460008051602061201983398151915281565b6040519081526020016102b9565b34801561033e57600080fd5b506103476108ef565b6040516102b99190611d7e565b34801561036057600080fd5b506103887f000000000000000000000000000000000000000000000000000000000000000081565b6040516001600160a01b0390911681526020016102b9565b3480156103ac57600080fd5b506103006103bb366004611dcb565b610951565b3480156103cc57600080fd5b506103246103db366004611ded565b60009081526020819052604090206001015490565b3480156103fc57600080fd5b5061030061040b366004611e22565b61095f565b34801561041c57600080fd5b50600654610388906001600160a01b031681565b34801561043c57600080fd5b5061030061044b366004611e3d565b6109e3565b34801561045c57600080fd5b5061030061046b366004611e3d565b610a0b565b34801561047c57600080fd5b5061030061048b366004611e22565b610ab7565b34801561049c57600080fd5b506103246104ab366004611ded565b60086020526000908152604090205481565b3480156104c957600080fd5b506103006104d8366004611e22565b610b3b565b3480156104e957600080fd5b506103006104f8366004611e22565b610c85565b34801561050957600080fd5b506102ad610518366004611ded565b610d75565b34801561052957600080fd5b50610300610538366004611e22565b610d9b565b34801561054957600080fd5b50610300610558366004611e69565b610daf565b34801561056957600080fd5b50610300610578366004611e91565b610dc3565b34801561058957600080fd5b50610300610598366004611ded565b610f35565b3480156105a957600080fd5b506002546001600160a01b0316610388565b3480156105c757600080fd5b506103006105d6366004611e22565b610f62565b3480156105e757600080fd5b506102ad6105f6366004611e3d565b61105a565b34801561060757600080fd5b5061032460045481565b34801561061d57600080fd5b50610388611114565b34801561063257600080fd5b506102ad610641366004611e3d565b61112d565b34801561065257600080fd5b50610388610661366004611ded565b6009602052600090815260409020546001600160a01b031681565b34801561068857600080fd5b50610691611156565b6040805165ffffffffffff9384168152929091166020830152016102b9565b3480156106bc57600080fd5b50610324600081565b3480156106d157600080fd5b506102ad6106e0366004611e22565b6111aa565b3480156106f157600080fd5b5061032460035481565b34801561070757600080fd5b506102ad610716366004611e22565b611285565b34801561072757600080fd5b50610300610736366004611e3d565b6112ae565b34801561074757600080fd5b50610388610756366004611e22565b61133e565b34801561076757600080fd5b506102d461141c565b34801561077c57600080fd5b5061032460008051602061203983398151915281565b34801561079e57600080fd5b5061030061147b565b3480156107b357600080fd5b506107bc6114bb565b604080516001600160a01b03909316835265ffffffffffff9091166020830152016102b9565b3480156107ee57600080fd5b50610324600a81565b34801561080357600080fd5b50610300610812366004611e3d565b6114dc565b34801561082357600080fd5b50610300611504565b34801561083857600080fd5b50610300610847366004611e22565b611517565b34801561085857600080fd5b50610324610867366004611e22565b60076020526000908152604090205481565b34801561088557600080fd5b50610300610894366004611f06565b61156e565b3480156108a557600080fd5b50610324600281565b60006001600160e01b031982166318a4c3c360e11b14806108d357506108d38261161c565b92915050565b60006108e481611651565b6108ec61165b565b50565b6060600580548060200260200160405190810160405280929190818152602001828054801561094757602002820191906000526020600020905b81546001600160a01b03168152600190910190602001808311610929575b5050505050905090565b61095b8282611668565b5050565b6109776000805160206120198339815191523361112d565b610994576040516375443aa160e11b815260040160405180910390fd5b6109ac600080516020612039833981519152826109e3565b6040516001600160a01b038216907f1c6a012dd66655260edf64196d2e05cb8f935251f6498305ec88680114b65e9e90600090a250565b81610a0157604051631fe1e13d60e11b815260040160405180910390fd5b61095b8282611690565b81158015610a2657506002546001600160a01b038281169116145b15610aad57600080610a366114bb565b90925090506001600160a01b038216151580610a58575065ffffffffffff8116155b80610a6b57504265ffffffffffff821610155b15610a98576040516319ca5ebb60e01b815265ffffffffffff821660048201526024015b60405180910390fd5b50506001805465ffffffffffff60a01b191690555b61095b82826116bb565b610acf6000805160206120198339815191523361112d565b610aec576040516375443aa160e11b815260040160405180910390fd5b610b04600080516020612039833981519152826114dc565b6040516001600160a01b038216907f93c4b008adc5c895fac7841a449310258f51737b0193d648e06e9f87dd44969c90600090a250565b610b536000805160206120198339815191523361112d565b610b70576040516375443aa160e11b815260040160405180910390fd5b6000610b7b826116ee565b6005549091508110610ba05760405163dec1c80b60e01b815260040160405180910390fd5b60058054610bb090600190611f46565b81548110610bc057610bc0611f59565b600091825260209091200154600580546001600160a01b039092169183908110610bec57610bec611f59565b9060005260206000200160006101000a8154816001600160a01b0302191690836001600160a01b031602179055506005805480610c2b57610c2b611f6f565b600082815260208120820160001990810180546001600160a01b03191690559091019091556040516001600160a01b038416917f0f83685524051a44165356f0ea9cb06be27840d1c5640699ce9576b83f6a7a7a91a25050565b610c9d6000805160206120198339815191523361112d565b610cba576040516375443aa160e11b815260040160405180910390fd5b6000816001600160a01b03164760405160006040518083038185875af1925050503d8060008114610d07576040519150601f19603f3d011682016040523d82523d6000602084013e610d0c565b606091505b5050905080610d2e5760405163b12d13eb60e01b815260040160405180910390fd5b816001600160a01b03167f0d0f2791db343730330b95077f3f049f214e9b533c14f6c62813650586d65fb747604051610d6991815260200190565b60405180910390a25050565b600354600082815260086020526040812054909190610d949042611f46565b1192915050565b6000610da681611651565b61095b82611755565b6000610dba81611651565b61095b826117c1565b610ddb6000805160206120198339815191523361112d565b610df8576040516375443aa160e11b815260040160405180910390fd5b600554600a90610e09908390611f85565b1115610e285760405163133cbc4f60e01b815260040160405180910390fd5b60005b81811015610f3057610e62838383818110610e4857610e48611f59565b9050602002016020810190610e5d9190611e22565b611831565b610f1e576005838383818110610e7a57610e7a611f59565b9050602002016020810190610e8f9190611e22565b81546001810183556000928352602090922090910180546001600160a01b0319166001600160a01b03909216919091179055828282818110610ed357610ed3611f59565b9050602002016020810190610ee89190611e22565b6001600160a01b03167f767d0ef6430026bcd36e0d0967ba7a148150acd358cb782bf4f829f0395c7f9660405160405180910390a25b80610f2881611f98565b915050610e2b565b505050565b610f4060003361112d565b610f5d5760405163b04e66ad60e01b815260040160405180910390fd5b600355565b610f7a6000805160206120198339815191523361112d565b610f97576040516375443aa160e11b815260040160405180910390fd5b60055460091901610fbb5760405163133cbc4f60e01b815260040160405180910390fd5b610fc481611831565b15610fe257604051636424484f60e11b815260040160405180910390fd5b6005805460018101825560009182527f036b6384b5eca791c62761152d0c79bb0604c104a5fb6f4eb0703f3154bb3db00180546001600160a01b0319166001600160a01b03841690811790915560405190917f767d0ef6430026bcd36e0d0967ba7a148150acd358cb782bf4f829f0395c7f9691a250565b6000828152600960205260408120546001600160a01b031661108f57604051630309e28160e21b815260040160405180910390fd5b60008381526009602052604090819020549051600162bf7abd60e01b031981526001600160a01b0384811660048301529091169063ff40854390602401602060405180830381865afa1580156110e9573d6000803e3d6000fd5b505050506040513d601f19601f8201168201806040525081019061110d9190611fb1565b9392505050565b60006111286002546001600160a01b031690565b905090565b6000918252602082815260408084206001600160a01b0393909316845291905290205460ff1690565b600254600090600160d01b900465ffffffffffff16801515801561118257504265ffffffffffff821610155b61118e576000806111a2565b600254600160a01b900465ffffffffffff16815b915091509091565b60055460009081036111be57506000919050565b60005b60055481101561127c576000600582815481106111e0576111e0611f59565b600091825260209091200154604051631b63a96d60e21b81526001600160a01b03868116600483015290911691508190636d8ea5b490602401602060405180830381865afa158015611236573d6000803e3d6000fd5b505050506040513d601f19601f8201168201806040525081019061125a9190611fb1565b15611269575060019392505050565b508061127481611f98565b9150506111c1565b50600092915050565b6003546001600160a01b038216600090815260076020526040812054909190610d949042611f46565b6112c66000805160206120198339815191523361112d565b6112e3576040516375443aa160e11b815260040160405180910390fd5b60008281526009602090815260409182902080546001600160a01b0319166001600160a01b03851690811790915591518481527f5340f7821c2e5325406ccc77291103ddc53fb98fef93c1db2a2ebd9192df49689101610d69565b6000805b60055481101561127c576005818154811061135f5761135f611f59565b600091825260209091200154604051631b63a96d60e21b81526001600160a01b03858116600483015290911690636d8ea5b490602401602060405180830381865afa1580156113b2573d6000803e3d6000fd5b505050506040513d601f19601f820116820180604052508101906113d69190611fb1565b1561140a57600581815481106113ee576113ee611f59565b6000918252602090912001546001600160a01b03169392505050565b8061141481611f98565b915050611342565b600254600090600160d01b900465ffffffffffff16801515801561144757504265ffffffffffff8216105b61146257600154600160d01b900465ffffffffffff16611475565b600254600160a01b900465ffffffffffff165b91505090565b60006114856114bb565b509050336001600160a01b038216146114b357604051636116401160e11b8152336004820152602401610a8f565b6108ec611891565b6001546001600160a01b03811691600160a01b90910465ffffffffffff1690565b816114fa57604051631fe1e13d60e11b815260040160405180910390fd5b61095b828261192a565b600061150f81611651565b6108ec61194f565b61152f6000805160206120198339815191523361112d565b61154c576040516375443aa160e11b815260040160405180910390fd5b600680546001600160a01b0319166001600160a01b0392909216919091179055565b6115866000805160206120398339815191523361112d565b6115a35760405163abeef50560e01b815260040160405180910390fd5b6001600160a01b03821660009081526007602090815260408083204290819055848452600890925282205560048054916115dc83611f98565b9190505550816001600160a01b03167f6e5e27e9cf36c3541492598af31ebab8e0da084eec479557bd53efe0ceeb29f442604051610d6991815260200190565b60006001600160e01b03198216637965db0b60e01b14806108d357506301ffc9a760e01b6001600160e01b03198316146108d3565b6108ec813361195a565b611666600080611993565b565b8161168657604051631fe1e13d60e11b815260040160405180910390fd5b61095b8282611a53565b6000828152602081905260409020600101546116ab81611651565b6116b58383611a9e565b50505050565b6001600160a01b03811633146116e45760405163334bd91960e11b815260040160405180910390fd5b610f308282611b06565b6000805b60055481101561174b57826001600160a01b03166005828154811061171957611719611f59565b6000918252602090912001546001600160a01b0316036117395792915050565b8061174381611f98565b9150506116f2565b5050600554919050565b600061175f61141c565b61176842611b43565b6117729190611fd3565b905061177e8282611b7a565b60405165ffffffffffff821681526001600160a01b038316907f3377dc44241e779dd06afab5b788a35ca5f3b778836e2990bdb26a2a4b2e5ed690602001610d69565b60006117cc82611bf9565b6117d542611b43565b6117df9190611fd3565b90506117eb8282611993565b6040805165ffffffffffff8085168252831660208201527ff1038c18cf84a56e432fdbfaf746924b7ea511dfe03a6506a0ceba4888788d9b910160405180910390a15050565b6000805b60055481101561127c57826001600160a01b03166005828154811061185c5761185c611f59565b6000918252602090912001546001600160a01b03160361187f5750600192915050565b8061188981611f98565b915050611835565b60008061189c6114bb565b915091506118b18165ffffffffffff16151590565b15806118c557504265ffffffffffff821610155b156118ed576040516319ca5ebb60e01b815265ffffffffffff82166004820152602401610a8f565b61190960006119046002546001600160a01b031690565b611b06565b50611915600083611a9e565b5050600180546001600160d01b031916905550565b60008281526020819052604090206001015461194581611651565b6116b58383611b06565b611666600080611b7a565b611964828261112d565b61095b5760405163e2517d3f60e01b81526001600160a01b038216600482015260248101839052604401610a8f565b600254600160d01b900465ffffffffffff168015611a16574265ffffffffffff821610156119ec57600254600180546001600160d01b0316600160a01b90920465ffffffffffff16600160d01b02919091179055611a16565b6040517f2b1fa2edafe6f7b9e97c1a9e0c3660e645beb2dcaa2d45bdbf9beaf5472e1ec590600090a15b50600280546001600160a01b0316600160a01b65ffffffffffff948516026001600160d01b031617600160d01b9290931691909102919091179055565b600082815260208190526040808220600101805490849055905190918391839186917fbd79b86ffe0ab8e8776151514217cd7cacd52c909f66475c3af44e129f0b00ff9190a4505050565b600082611afc576000611ab96002546001600160a01b031690565b6001600160a01b031614611ae057604051631fe1e13d60e11b815260040160405180910390fd5b600280546001600160a01b0319166001600160a01b0384161790555b61110d8383611c41565b600082158015611b2357506002546001600160a01b038381169116145b15611b3957600280546001600160a01b03191690555b61110d8383611cd3565b600065ffffffffffff821115611b76576040516306dfcc6560e41b81526030600482015260248101839052604401610a8f565b5090565b6000611b846114bb565b6001805465ffffffffffff8616600160a01b026001600160d01b03199091166001600160a01b038816171790559150611bc690508165ffffffffffff16151590565b15610f30576040517f8886ebfc4259abdbc16601dd8fb5678e54878f47b3c34836cfc51154a960510990600090a1505050565b600080611c0461141c565b90508065ffffffffffff168365ffffffffffff1611611c2c57611c278382611ff9565b61110d565b61110d65ffffffffffff841662069780611d3e565b6000611c4d838361112d565b611ccb576000838152602081815260408083206001600160a01b03861684529091529020805460ff19166001179055611c833390565b6001600160a01b0316826001600160a01b0316847f2f8788117e7eff1d82e926ec794901d17c78024a50270940304540a733656f0d60405160405180910390a45060016108d3565b5060006108d3565b6000611cdf838361112d565b15611ccb576000838152602081815260408083206001600160a01b0386168085529252808320805460ff1916905551339286917ff6391f5c32d9c69d2a47ea670b442974b53935d1edc7fd64eb21e047a839171b9190a45060016108d3565b6000818310611d4d578161110d565b5090919050565b600060208284031215611d6657600080fd5b81356001600160e01b03198116811461110d57600080fd5b6020808252825182820181905260009190848201906040850190845b81811015611dbf5783516001600160a01b031683529284019291840191600101611d9a565b50909695505050505050565b60008060408385031215611dde57600080fd5b50508035926020909101359150565b600060208284031215611dff57600080fd5b5035919050565b80356001600160a01b0381168114611e1d57600080fd5b919050565b600060208284031215611e3457600080fd5b61110d82611e06565b60008060408385031215611e5057600080fd5b82359150611e6060208401611e06565b90509250929050565b600060208284031215611e7b57600080fd5b813565ffffffffffff8116811461110d57600080fd5b60008060208385031215611ea457600080fd5b823567ffffffffffffffff80821115611ebc57600080fd5b818501915085601f830112611ed057600080fd5b813581811115611edf57600080fd5b8660208260051b8501011115611ef457600080fd5b60209290920196919550909350505050565b60008060408385031215611f1957600080fd5b611f2283611e06565b946020939093013593505050565b634e487b7160e01b600052601160045260246000fd5b818103818111156108d3576108d3611f30565b634e487b7160e01b600052603260045260246000fd5b634e487b7160e01b600052603160045260246000fd5b808201808211156108d3576108d3611f30565b600060018201611faa57611faa611f30565b5060010190565b600060208284031215611fc357600080fd5b8151801515811461110d57600080fd5b65ffffffffffff818116838216019080821115611ff257611ff2611f30565b5092915050565b65ffffffffffff828116828216039080821115611ff257611ff2611f3056fe5ff8452a567af8e692d0608c7a8816f746446b757de3aecfd791fd4a19d2cd352fa599c5243072345f9c4ed5d196cc80caf843570a99cd1a84bfff485fa7aafda2646970667358221220a3d7f41e64992fe5b3482d36f7134cad84ff0c926cd2e244102cdcfb6d6d0e6a64736f6c63430008140033",
  "devdoc": {
    "errors": {
      "AccessControlBadConfirmation()": [
        {
          "details": "The caller of a function is not the expected one. NOTE: Don't confuse with {AccessControlUnauthorizedAccount}."
        }
      ],
      "AccessControlEnforcedDefaultAdminDelay(uint48)": [
        {
          "details": "The delay for transferring the default admin delay is enforced and the operation must wait until `schedule`. NOTE: `schedule` can be 0 indicating there's no transfer scheduled."
        }
      ],
      "AccessControlEnforcedDefaultAdminRules()": [
        {
          "details": "At least one of the following rules was violated: - The `DEFAULT_ADMIN_ROLE` must only be managed by itself. - The `DEFAULT_ADMIN_ROLE` must only be held by one account at the time. - Any `DEFAULT_ADMIN_ROLE` transfer must be in two delayed steps."
        }
      ],
      "AccessControlInvalidDefaultAdmin(address)": [
        {
          "details": "The new default admin is not a valid default admin."
        }
      ],
      "AccessControlUnauthorizedAccount(address,bytes32)": [
        {
          "details": "The `account` is missing a role."
        }
      ],
      "SafeCastOverflowedUintDowncast(uint8,uint256)": [
        {
          "details": "Value doesn't fit in an uint of `bits` size."
        }
      ]
    },
    "events": {
      "DefaultAdminDelayChangeCanceled()": {
        "details": "Emitted when a {pendingDefaultAdminDelay} is reset if its schedule didn't pass."
      },
      "DefaultAdminDelayChangeScheduled(uint48,uint48)": {
        "details": "Emitted when a {defaultAdminDelay} change is started, setting `newDelay` as the next delay to be applied between default admin transfer after `effectSchedule` has passed."
      },
      "DefaultAdminTransferCanceled()": {
        "details": "Emitted when a {pendingDefaultAdmin} is reset if it was never accepted, regardless of its schedule."
      },
      "DefaultAdminTransferScheduled(address,uint48)": {
        "details": "Emitted when a {defaultAdmin} transfer is started, setting `newAdmin` as the next address to become the {defaultAdmin} by calling {acceptDefaultAdminTransfer} only after `acceptSchedule` passes."
      },
      "RoleAdminChanged(bytes32,bytes32,bytes32)": {
        "details": "Emitted when `newAdminRole` is set as ``role``'s admin role, replacing `previousAdminRole` `DEFAULT_ADMIN_ROLE` is the starting admin for all roles, despite {RoleAdminChanged} not being emitted signaling this."
      },
      "RoleGranted(bytes32,address,address)": {
        "details": "Emitted when `account` is granted `role`. `sender` is the account that originated the contract call, an admin role bearer except when using {AccessControl-_setupRole}."
      },
      "RoleRevoked(bytes32,address,address)": {
        "details": "Emitted when `account` is revoked `role`. `sender` is the account that originated the contract call:   - if using `revokeRole`, it is the admin role bearer   - if using `renounceRole`, it is the role bearer (i.e. `account`)"
      }
    },
    "kind": "dev",
    "methods": {
      "acceptDefaultAdminTransfer()": {
        "details": "Completes a {defaultAdmin} transfer previously started with {beginDefaultAdminTransfer}. After calling the function: - `DEFAULT_ADMIN_ROLE` should be granted to the caller. - `DEFAULT_ADMIN_ROLE` should be revoked from the previous holder. - {pendingDefaultAdmin} should be reset to zero values. Requirements: - Only can be called by the {pendingDefaultAdmin}'s `newAdmin`. - The {pendingDefaultAdmin}'s `acceptSchedule` should've passed."
      },
      "addLock(address)": {
        "details": "Adds a single lock address to the array.",
        "params": {
          "_lockAddress": "The address of the lock to add."
        }
      },
      "batchAddLocks(address[])": {
        "details": "Adds multiple lock addresses to the array, skipping already added addresses.",
        "params": {
          "_lockAddresses": "The addresses of the locks to add. "
        }
      },
      "beginDefaultAdminTransfer(address)": {
        "details": "Starts a {defaultAdmin} transfer by setting a {pendingDefaultAdmin} scheduled for acceptance after the current timestamp plus a {defaultAdminDelay}. Requirements: - Only can be called by the current {defaultAdmin}. Emits a DefaultAdminRoleChangeStarted event."
      },
      "cancelDefaultAdminTransfer()": {
        "details": "Cancels a {defaultAdmin} transfer previously started with {beginDefaultAdminTransfer}. A {pendingDefaultAdmin} not yet accepted can also be cancelled with this function. Requirements: - Only can be called by the current {defaultAdmin}. May emit a DefaultAdminTransferCanceled event."
      },
      "changeDefaultAdminDelay(uint48)": {
        "details": "Initiates a {defaultAdminDelay} update by setting a {pendingDefaultAdminDelay} scheduled for getting into effect after the current timestamp plus a {defaultAdminDelay}. This function guarantees that any call to {beginDefaultAdminTransfer} done between the timestamp this method is called and the {pendingDefaultAdminDelay} effect schedule will use the current {defaultAdminDelay} set before calling. The {pendingDefaultAdminDelay}'s effect schedule is defined in a way that waiting until the schedule and then calling {beginDefaultAdminTransfer} with the new delay will take at least the same as another {defaultAdmin} complete transfer (including acceptance). The schedule is designed for two scenarios: - When the delay is changed for a larger one the schedule is `block.timestamp + newDelay` capped by {defaultAdminDelayIncreaseWait}. - When the delay is changed for a shorter one, the schedule is `block.timestamp + (current delay - new delay)`. A {pendingDefaultAdminDelay} that never got into effect will be canceled in favor of a new scheduled change. Requirements: - Only can be called by the current {defaultAdmin}. Emits a DefaultAdminDelayChangeScheduled event and may emit a DefaultAdminDelayChangeCanceled event."
      },
      "defaultAdmin()": {
        "details": "Returns the address of the current `DEFAULT_ADMIN_ROLE` holder."
      },
      "defaultAdminDelay()": {
        "details": "Returns the delay required to schedule the acceptance of a {defaultAdmin} transfer started. This delay will be added to the current timestamp when calling {beginDefaultAdminTransfer} to set the acceptance schedule. NOTE: If a delay change has been scheduled, it will take effect as soon as the schedule passes, making this function returns the new delay. See {changeDefaultAdminDelay}."
      },
      "defaultAdminDelayIncreaseWait()": {
        "details": "Maximum time in seconds for an increase to {defaultAdminDelay} (that is scheduled using {changeDefaultAdminDelay}) to take effect. Default to 5 days. When the {defaultAdminDelay} is scheduled to be increased, it goes into effect after the new delay has passed with the purpose of giving enough time for reverting any accidental change (i.e. using milliseconds instead of seconds) that may lock the contract. However, to avoid excessive schedules, the wait is capped by this function and it can be overrode for a custom {defaultAdminDelay} increase scheduling. IMPORTANT: Make sure to add a reasonable amount of time while overriding this value, otherwise, there's a risk of setting a high new delay that goes into effect almost immediately without the possibility of human intervention in the case of an input error (eg. set milliseconds instead of seconds)."
      },
      "getFirstValidKeyLockAddress(address)": {
        "details": "Returns the address of the first lock for which the user has a valid key.",
        "params": {
          "user": "The address of the user."
        },
        "returns": {
          "_0": "The address of the first valid lock, or address(0) if none found."
        }
      },
      "getLockAddresses()": {
        "details": "Gets the list of lock addresses.",
        "returns": {
          "_0": "An array of lock addresses."
        }
      },
      "getRoleAdmin(bytes32)": {
        "details": "Returns the admin role that controls `role`. See {grantRole} and {revokeRole}. To change a role's admin, use {_setRoleAdmin}."
      },
      "grantRole(bytes32,address)": {
        "details": "See {AccessControl-grantRole}. Reverts for `DEFAULT_ADMIN_ROLE`."
      },
      "grantWithdrawalRecorderRole(address)": {
        "details": "Grants the WITHDRAWAL_RECORDER_ROLE to an address.      Can only be called by addresses with the admin role.",
        "params": {
          "account": "The address to grant the role to."
        }
      },
      "hasRole(bytes32,address)": {
        "details": "Returns `true` if `account` has been granted `role`."
      },
      "hasValidKey(address)": {
        "details": "Checks if a user has a valid key to any of the locks.",
        "params": {
          "user": "The address of the user."
        },
        "returns": {
          "_0": "True if the user has a valid key, false otherwise."
        }
      },
      "isAbleToWithdraw(address)": {
        "details": "Checks if a user is able to withdraw based on the 24-hour cooldown.",
        "params": {
          "user": "The address of the user."
        },
        "returns": {
          "_0": "True if the user can withdraw, false otherwise."
        }
      },
      "owner()": {
        "details": "See {IERC5313-owner}."
      },
      "pendingDefaultAdmin()": {
        "details": "Returns a tuple of a `newAdmin` and an accept schedule. After the `schedule` passes, the `newAdmin` will be able to accept the {defaultAdmin} role by calling {acceptDefaultAdminTransfer}, completing the role transfer. A zero value only in `acceptSchedule` indicates no pending admin transfer. NOTE: A zero address `newAdmin` means that {defaultAdmin} is being renounced."
      },
      "pendingDefaultAdminDelay()": {
        "details": "Returns a tuple of `newDelay` and an effect schedule. After the `schedule` passes, the `newDelay` will get into effect immediately for every new {defaultAdmin} transfer started with {beginDefaultAdminTransfer}. A zero value only in `effectSchedule` indicates no pending delay change. NOTE: A zero value only for `newDelay` means that the next {defaultAdminDelay} will be zero after the effect schedule."
      },
      "recordWithdrawal(address,uint256)": {
        "details": "Records the withdrawal by updating the lastWithdrawal timestamp. Can be called by any address with the WITHDRAWAL_RECORDER_ROLE.",
        "params": {
          "_tokenId": "The token ID/ key of the lock.",
          "_user": "The address of the user."
        }
      },
      "removeLock(address)": {
        "details": "Removes a single lock address from the array.",
        "params": {
          "_lockAddress": "The address of the lock to remove."
        }
      },
      "renounceRole(bytes32,address)": {
        "details": "See {AccessControl-renounceRole}. For the `DEFAULT_ADMIN_ROLE`, it only allows renouncing in two steps by first calling {beginDefaultAdminTransfer} to the `address(0)`, so it's required that the {pendingDefaultAdmin} schedule has also passed when calling this function. After its execution, it will not be possible to call `onlyRole(DEFAULT_ADMIN_ROLE)` functions. NOTE: Renouncing `DEFAULT_ADMIN_ROLE` will leave the contract without a {defaultAdmin}, thereby disabling any functionality that is only available for it, and the possibility of reassigning a non-administrated role."
      },
      "revokeRole(bytes32,address)": {
        "details": "See {AccessControl-revokeRole}. Reverts for `DEFAULT_ADMIN_ROLE`."
      },
      "revokeWithdrawalRecorderRole(address)": {
        "details": "Revokes the WITHDRAWAL_RECORDER_ROLE from an address.      Can only be called by addresses with the admin role.",
        "params": {
          "account": "The address to revoke the role from."
        }
      },
      "rollbackDefaultAdminDelay()": {
        "details": "Cancels a scheduled {defaultAdminDelay} change. Requirements: - Only can be called by the current {defaultAdmin}. May emit a DefaultAdminDelayChangeCanceled event."
      },
      "setRoleAdmin(bytes32,bytes32)": {
        "details": "Sets the admin role for a specific role. Can only be called by addresses with the admin role.",
        "params": {
          "_adminRole": "The admin role to be set for the specified role.",
          "_role": "The role to set the admin for. "
        }
      },
      "supportsInterface(bytes4)": {
        "details": "See {IERC165-supportsInterface}."
      }
    },
    "version": 1
  },
  "userdoc": {
    "kind": "user",
    "methods": {},
    "version": 1
  },
  "storageLayout": {
    "storage": [
      {
        "astId": 26,
        "contract": "contracts/ETHRwandaCommunityFaucetManager.sol:ETHRwandaCommunityFaucetManager",
        "label": "_roles",
        "offset": 0,
        "slot": "0",
        "type": "t_mapping(t_bytes32,t_struct(RoleData)21_storage)"
      },
      {
        "astId": 400,
        "contract": "contracts/ETHRwandaCommunityFaucetManager.sol:ETHRwandaCommunityFaucetManager",
        "label": "_pendingDefaultAdmin",
        "offset": 0,
        "slot": "1",
        "type": "t_address"
      },
      {
        "astId": 402,
        "contract": "contracts/ETHRwandaCommunityFaucetManager.sol:ETHRwandaCommunityFaucetManager",
        "label": "_pendingDefaultAdminSchedule",
        "offset": 20,
        "slot": "1",
        "type": "t_uint48"
      },
      {
        "astId": 404,
        "contract": "contracts/ETHRwandaCommunityFaucetManager.sol:ETHRwandaCommunityFaucetManager",
        "label": "_currentDelay",
        "offset": 26,
        "slot": "1",
        "type": "t_uint48"
      },
      {
        "astId": 406,
        "contract": "contracts/ETHRwandaCommunityFaucetManager.sol:ETHRwandaCommunityFaucetManager",
        "label": "_currentDefaultAdmin",
        "offset": 0,
        "slot": "2",
        "type": "t_address"
      },
      {
        "astId": 408,
        "contract": "contracts/ETHRwandaCommunityFaucetManager.sol:ETHRwandaCommunityFaucetManager",
        "label": "_pendingDelay",
        "offset": 20,
        "slot": "2",
        "type": "t_uint48"
      },
      {
        "astId": 410,
        "contract": "contracts/ETHRwandaCommunityFaucetManager.sol:ETHRwandaCommunityFaucetManager",
        "label": "_pendingDelaySchedule",
        "offset": 26,
        "slot": "2",
        "type": "t_uint48"
      },
      {
        "astId": 4130,
        "contract": "contracts/ETHRwandaCommunityFaucetManager.sol:ETHRwandaCommunityFaucetManager",
        "label": "COOL_DOWN",
        "offset": 0,
        "slot": "3",
        "type": "t_uint256"
      },
      {
        "astId": 4136,
        "contract": "contracts/ETHRwandaCommunityFaucetManager.sol:ETHRwandaCommunityFaucetManager",
        "label": "totalRequests",
        "offset": 0,
        "slot": "4",
        "type": "t_uint256"
      },
      {
        "astId": 4139,
        "contract": "contracts/ETHRwandaCommunityFaucetManager.sol:ETHRwandaCommunityFaucetManager",
        "label": "lockAddresses",
        "offset": 0,
        "slot": "5",
        "type": "t_array(t_address)dyn_storage"
      },
      {
        "astId": 4141,
        "contract": "contracts/ETHRwandaCommunityFaucetManager.sol:ETHRwandaCommunityFaucetManager",
        "label": "faucetWalletAddress",
        "offset": 0,
        "slot": "6",
        "type": "t_address"
      },
      {
        "astId": 4145,
        "contract": "contracts/ETHRwandaCommunityFaucetManager.sol:ETHRwandaCommunityFaucetManager",
        "label": "lastWithdrawal",
        "offset": 0,
        "slot": "7",
        "type": "t_mapping(t_address,t_uint256)"
      },
      {
        "astId": 4149,
        "contract": "contracts/ETHRwandaCommunityFaucetManager.sol:ETHRwandaCommunityFaucetManager",
        "label": "lastWithdrawalByTokenId",
        "offset": 0,
        "slot": "8",
        "type": "t_mapping(t_uint256,t_uint256)"
      },
      {
        "astId": 4153,
        "contract": "contracts/ETHRwandaCommunityFaucetManager.sol:ETHRwandaCommunityFaucetManager",
        "label": "ETHRwandaHackerOnboardVersions",
        "offset": 0,
        "slot": "9",
        "type": "t_mapping(t_uint256,t_address)"
      }
    ],
    "types": {
      "t_address": {
        "encoding": "inplace",
        "label": "address",
        "numberOfBytes": "20"
      },
      "t_array(t_address)dyn_storage": {
        "base": "t_address",
        "encoding": "dynamic_array",
        "label": "address[]",
        "numberOfBytes": "32"
      },
      "t_bool": {
        "encoding": "inplace",
        "label": "bool",
        "numberOfBytes": "1"
      },
      "t_bytes32": {
        "encoding": "inplace",
        "label": "bytes32",
        "numberOfBytes": "32"
      },
      "t_mapping(t_address,t_bool)": {
        "encoding": "mapping",
        "key": "t_address",
        "label": "mapping(address => bool)",
        "numberOfBytes": "32",
        "value": "t_bool"
      },
      "t_mapping(t_address,t_uint256)": {
        "encoding": "mapping",
        "key": "t_address",
        "label": "mapping(address => uint256)",
        "numberOfBytes": "32",
        "value": "t_uint256"
      },
      "t_mapping(t_bytes32,t_struct(RoleData)21_storage)": {
        "encoding": "mapping",
        "key": "t_bytes32",
        "label": "mapping(bytes32 => struct AccessControl.RoleData)",
        "numberOfBytes": "32",
        "value": "t_struct(RoleData)21_storage"
      },
      "t_mapping(t_uint256,t_address)": {
        "encoding": "mapping",
        "key": "t_uint256",
        "label": "mapping(uint256 => address)",
        "numberOfBytes": "32",
        "value": "t_address"
      },
      "t_mapping(t_uint256,t_uint256)": {
        "encoding": "mapping",
        "key": "t_uint256",
        "label": "mapping(uint256 => uint256)",
        "numberOfBytes": "32",
        "value": "t_uint256"
      },
      "t_struct(RoleData)21_storage": {
        "encoding": "inplace",
        "label": "struct AccessControl.RoleData",
        "members": [
          {
            "astId": 18,
            "contract": "contracts/ETHRwandaCommunityFaucetManager.sol:ETHRwandaCommunityFaucetManager",
            "label": "hasRole",
            "offset": 0,
            "slot": "0",
            "type": "t_mapping(t_address,t_bool)"
          },
          {
            "astId": 20,
            "contract": "contracts/ETHRwandaCommunityFaucetManager.sol:ETHRwandaCommunityFaucetManager",
            "label": "adminRole",
            "offset": 0,
            "slot": "1",
            "type": "t_bytes32"
          }
        ],
        "numberOfBytes": "64"
      },
      "t_uint256": {
        "encoding": "inplace",
        "label": "uint256",
        "numberOfBytes": "32"
      },
      "t_uint48": {
        "encoding": "inplace",
        "label": "uint48",
        "numberOfBytes": "6"
      }
    }
  }
}