{
  "address": "0x024235436639d5e35bFeCe8b69cC8271122ab9b4",
  "abi": [
    {
      "inputs": [
        {
          "internalType": "address",
          "name": "_manager",
          "type": "address"
        },
        {
          "internalType": "uint256",
          "name": "_version",
          "type": "uint256"
        },
        {
          "internalType": "address",
          "name": "_ethRwandaHackerOnboardAddress",
          "type": "address"
        },
        {
          "internalType": "address",
          "name": "_faucetWalletAddress",
          "type": "address"
        }
      ],
      "stateMutability": "nonpayable",
      "type": "constructor"
    },
    {
      "inputs": [],
      "name": "AccessControlBadConfirmation",
      "type": "error"
    },
    {
      "inputs": [
        {
          "internalType": "uint48",
          "name": "schedule",
          "type": "uint48"
        }
      ],
      "name": "AccessControlEnforcedDefaultAdminDelay",
      "type": "error"
    },
    {
      "inputs": [],
      "name": "AccessControlEnforcedDefaultAdminRules",
      "type": "error"
    },
    {
      "inputs": [
        {
          "internalType": "address",
          "name": "defaultAdmin",
          "type": "address"
        }
      ],
      "name": "AccessControlInvalidDefaultAdmin",
      "type": "error"
    },
    {
      "inputs": [
        {
          "internalType": "address",
          "name": "account",
          "type": "address"
        },
        {
          "internalType": "bytes32",
          "name": "neededRole",
          "type": "bytes32"
        }
      ],
      "name": "AccessControlUnauthorizedAccount",
      "type": "error"
    },
    {
      "inputs": [],
      "name": "ETHRwHackerOnboardNotFound",
      "type": "error"
    },
    {
      "inputs": [],
      "name": "ETHTransferFailed",
      "type": "error"
    },
    {
      "inputs": [],
      "name": "ExceedsMaxLocks",
      "type": "error"
    },
    {
      "inputs": [],
      "name": "LockAddressNotFound",
      "type": "error"
    },
    {
      "inputs": [],
      "name": "LockAlreadyAdded",
      "type": "error"
    },
    {
      "inputs": [],
      "name": "NotFaucetAdmin",
      "type": "error"
    },
    {
      "inputs": [],
      "name": "NotFaucetManager",
      "type": "error"
    },
    {
      "inputs": [],
      "name": "NotWithdrawalRecorder",
      "type": "error"
    },
    {
      "inputs": [
        {
          "internalType": "uint8",
          "name": "bits",
          "type": "uint8"
        },
        {
          "internalType": "uint256",
          "name": "value",
          "type": "uint256"
        }
      ],
      "name": "SafeCastOverflowedUintDowncast",
      "type": "error"
    },
    {
      "anonymous": false,
      "inputs": [],
      "name": "DefaultAdminDelayChangeCanceled",
      "type": "event"
    },
    {
      "anonymous": false,
      "inputs": [
        {
          "indexed": false,
          "internalType": "uint48",
          "name": "newDelay",
          "type": "uint48"
        },
        {
          "indexed": false,
          "internalType": "uint48",
          "name": "effectSchedule",
          "type": "uint48"
        }
      ],
      "name": "DefaultAdminDelayChangeScheduled",
      "type": "event"
    },
    {
      "anonymous": false,
      "inputs": [],
      "name": "DefaultAdminTransferCanceled",
      "type": "event"
    },
    {
      "anonymous": false,
      "inputs": [
        {
          "indexed": true,
          "internalType": "address",
          "name": "newAdmin",
          "type": "address"
        },
        {
          "indexed": false,
          "internalType": "uint48",
          "name": "acceptSchedule",
          "type": "uint48"
        }
      ],
      "name": "DefaultAdminTransferScheduled",
      "type": "event"
    },
    {
      "anonymous": false,
      "inputs": [
        {
          "indexed": false,
          "internalType": "uint256",
          "name": "version",
          "type": "uint256"
        },
        {
          "indexed": true,
          "internalType": "address",
          "name": "onboardAddress",
          "type": "address"
        }
      ],
      "name": "ETHRwETHRwandaHackerOnboardVersionSet",
      "type": "event"
    },
    {
      "anonymous": false,
      "inputs": [
        {
          "indexed": true,
          "internalType": "address",
          "name": "to",
          "type": "address"
        },
        {
          "indexed": false,
          "internalType": "uint256",
          "name": "amount",
          "type": "uint256"
        }
      ],
      "name": "ETHRwETHTransfer",
      "type": "event"
    },
    {
      "anonymous": false,
      "inputs": [
        {
          "indexed": true,
          "internalType": "address",
          "name": "lockAddress",
          "type": "address"
        }
      ],
      "name": "ETHRwLockAdded",
      "type": "event"
    },
    {
      "anonymous": false,
      "inputs": [
        {
          "indexed": true,
          "internalType": "address",
          "name": "lockAddress",
          "type": "address"
        }
      ],
      "name": "ETHRwLockRemoved",
      "type": "event"
    },
    {
      "anonymous": false,
      "inputs": [
        {
          "indexed": true,
          "internalType": "address",
          "name": "user",
          "type": "address"
        },
        {
          "indexed": false,
          "internalType": "uint256",
          "name": "timestamp",
          "type": "uint256"
        }
      ],
      "name": "ETHRwWithdrawalRecorded",
      "type": "event"
    },
    {
      "anonymous": false,
      "inputs": [
        {
          "indexed": true,
          "internalType": "address",
          "name": "account",
          "type": "address"
        }
      ],
      "name": "ETHRwWithdrawalRecorderRoleGranted",
      "type": "event"
    },
    {
      "anonymous": false,
      "inputs": [
        {
          "indexed": true,
          "internalType": "address",
          "name": "account",
          "type": "address"
        }
      ],
      "name": "ETHRwWithdrawalRecorderRoleRevoked",
      "type": "event"
    },
    {
      "anonymous": false,
      "inputs": [
        {
          "indexed": true,
          "internalType": "bytes32",
          "name": "role",
          "type": "bytes32"
        },
        {
          "indexed": true,
          "internalType": "bytes32",
          "name": "previousAdminRole",
          "type": "bytes32"
        },
        {
          "indexed": true,
          "internalType": "bytes32",
          "name": "newAdminRole",
          "type": "bytes32"
        }
      ],
      "name": "RoleAdminChanged",
      "type": "event"
    },
    {
      "anonymous": false,
      "inputs": [
        {
          "indexed": true,
          "internalType": "bytes32",
          "name": "role",
          "type": "bytes32"
        },
        {
          "indexed": true,
          "internalType": "address",
          "name": "account",
          "type": "address"
        },
        {
          "indexed": true,
          "internalType": "address",
          "name": "sender",
          "type": "address"
        }
      ],
      "name": "RoleGranted",
      "type": "event"
    },
    {
      "anonymous": false,
      "inputs": [
        {
          "indexed": true,
          "internalType": "bytes32",
          "name": "role",
          "type": "bytes32"
        },
        {
          "indexed": true,
          "internalType": "address",
          "name": "account",
          "type": "address"
        },
        {
          "indexed": true,
          "internalType": "address",
          "name": "sender",
          "type": "address"
        }
      ],
      "name": "RoleRevoked",
      "type": "event"
    },
    {
      "inputs": [],
      "name": "COOL_DOWN",
      "outputs": [
        {
          "internalType": "uint256",
          "name": "",
          "type": "uint256"
        }
      ],
      "stateMutability": "view",
      "type": "function"
    },
    {
      "inputs": [],
      "name": "DEFAULT_ADMIN_ROLE",
      "outputs": [
        {
          "internalType": "bytes32",
          "name": "",
          "type": "bytes32"
        }
      ],
      "stateMutability": "view",
      "type": "function"
    },
    {
      "inputs": [
        {
          "internalType": "uint256",
          "name": "",
          "type": "uint256"
        }
      ],
      "name": "ETHRwandaHackerOnboardVersions",
      "outputs": [
        {
          "internalType": "address",
          "name": "",
          "type": "address"
        }
      ],
      "stateMutability": "view",
      "type": "function"
    },
    {
      "inputs": [],
      "name": "FAUCET_MANAGER_ROLE",
      "outputs": [
        {
          "internalType": "bytes32",
          "name": "",
          "type": "bytes32"
        }
      ],
      "stateMutability": "view",
      "type": "function"
    },
    {
      "inputs": [],
      "name": "MANAGER",
      "outputs": [
        {
          "internalType": "address",
          "name": "",
          "type": "address"
        }
      ],
      "stateMutability": "view",
      "type": "function"
    },
    {
      "inputs": [],
      "name": "MAX_LOCKS",
      "outputs": [
        {
          "internalType": "uint256",
          "name": "",
          "type": "uint256"
        }
      ],
      "stateMutability": "view",
      "type": "function"
    },
    {
      "inputs": [],
      "name": "VERSION",
      "outputs": [
        {
          "internalType": "uint256",
          "name": "",
          "type": "uint256"
        }
      ],
      "stateMutability": "view",
      "type": "function"
    },
    {
      "inputs": [],
      "name": "WITHDRAWAL_RECORDER_ROLE",
      "outputs": [
        {
          "internalType": "bytes32",
          "name": "",
          "type": "bytes32"
        }
      ],
      "stateMutability": "view",
      "type": "function"
    },
    {
      "inputs": [],
      "name": "acceptDefaultAdminTransfer",
      "outputs": [],
      "stateMutability": "nonpayable",
      "type": "function"
    },
    {
      "inputs": [
        {
          "internalType": "address",
          "name": "_lockAddress",
          "type": "address"
        }
      ],
      "name": "addLock",
      "outputs": [],
      "stateMutability": "nonpayable",
      "type": "function"
    },
    {
      "inputs": [
        {
          "internalType": "address[]",
          "name": "_lockAddresses",
          "type": "address[]"
        }
      ],
      "name": "batchAddLocks",
      "outputs": [],
      "stateMutability": "nonpayable",
      "type": "function"
    },
    {
      "inputs": [
        {
          "internalType": "address",
          "name": "newAdmin",
          "type": "address"
        }
      ],
      "name": "beginDefaultAdminTransfer",
      "outputs": [],
      "stateMutability": "nonpayable",
      "type": "function"
    },
    {
      "inputs": [],
      "name": "cancelDefaultAdminTransfer",
      "outputs": [],
      "stateMutability": "nonpayable",
      "type": "function"
    },
    {
      "inputs": [
        {
          "internalType": "uint48",
          "name": "newDelay",
          "type": "uint48"
        }
      ],
      "name": "changeDefaultAdminDelay",
      "outputs": [],
      "stateMutability": "nonpayable",
      "type": "function"
    },
    {
      "inputs": [],
      "name": "defaultAdmin",
      "outputs": [
        {
          "internalType": "address",
          "name": "",
          "type": "address"
        }
      ],
      "stateMutability": "view",
      "type": "function"
    },
    {
      "inputs": [],
      "name": "defaultAdminDelay",
      "outputs": [
        {
          "internalType": "uint48",
          "name": "",
          "type": "uint48"
        }
      ],
      "stateMutability": "view",
      "type": "function"
    },
    {
      "inputs": [],
      "name": "defaultAdminDelayIncreaseWait",
      "outputs": [
        {
          "internalType": "uint48",
          "name": "",
          "type": "uint48"
        }
      ],
      "stateMutability": "view",
      "type": "function"
    },
    {
      "inputs": [],
      "name": "faucetWalletAddress",
      "outputs": [
        {
          "internalType": "address",
          "name": "",
          "type": "address"
        }
      ],
      "stateMutability": "view",
      "type": "function"
    },
    {
      "inputs": [
        {
          "internalType": "address",
          "name": "user",
          "type": "address"
        }
      ],
      "name": "getFirstValidKeyLockAddress",
      "outputs": [
        {
          "internalType": "address",
          "name": "",
          "type": "address"
        }
      ],
      "stateMutability": "view",
      "type": "function"
    },
    {
      "inputs": [
        {
          "internalType": "uint256",
          "name": "_version",
          "type": "uint256"
        },
        {
          "internalType": "address",
          "name": "_hackerAddress",
          "type": "address"
        }
      ],
      "name": "getIsHackerInitialized",
      "outputs": [
        {
          "internalType": "bool",
          "name": "isInitialized_",
          "type": "bool"
        }
      ],
      "stateMutability": "view",
      "type": "function"
    },
    {
      "inputs": [],
      "name": "getLockAddresses",
      "outputs": [
        {
          "internalType": "address[]",
          "name": "",
          "type": "address[]"
        }
      ],
      "stateMutability": "view",
      "type": "function"
    },
    {
      "inputs": [
        {
          "internalType": "bytes32",
          "name": "role",
          "type": "bytes32"
        }
      ],
      "name": "getRoleAdmin",
      "outputs": [
        {
          "internalType": "bytes32",
          "name": "",
          "type": "bytes32"
        }
      ],
      "stateMutability": "view",
      "type": "function"
    },
    {
      "inputs": [
        {
          "internalType": "bytes32",
          "name": "role",
          "type": "bytes32"
        },
        {
          "internalType": "address",
          "name": "account",
          "type": "address"
        }
      ],
      "name": "grantRole",
      "outputs": [],
      "stateMutability": "nonpayable",
      "type": "function"
    },
    {
      "inputs": [
        {
          "internalType": "address",
          "name": "account",
          "type": "address"
        }
      ],
      "name": "grantWithdrawalRecorderRole",
      "outputs": [],
      "stateMutability": "nonpayable",
      "type": "function"
    },
    {
      "inputs": [
        {
          "internalType": "bytes32",
          "name": "role",
          "type": "bytes32"
        },
        {
          "internalType": "address",
          "name": "account",
          "type": "address"
        }
      ],
      "name": "hasRole",
      "outputs": [
        {
          "internalType": "bool",
          "name": "",
          "type": "bool"
        }
      ],
      "stateMutability": "view",
      "type": "function"
    },
    {
      "inputs": [
        {
          "internalType": "address",
          "name": "user",
          "type": "address"
        }
      ],
      "name": "hasValidKey",
      "outputs": [
        {
          "internalType": "bool",
          "name": "",
          "type": "bool"
        }
      ],
      "stateMutability": "view",
      "type": "function"
    },
    {
      "inputs": [
        {
          "internalType": "address",
          "name": "user",
          "type": "address"
        }
      ],
      "name": "isAbleToWithdraw",
      "outputs": [
        {
          "internalType": "bool",
          "name": "",
          "type": "bool"
        }
      ],
      "stateMutability": "view",
      "type": "function"
    },
    {
      "inputs": [
        {
          "internalType": "uint256",
          "name": "tokenId",
          "type": "uint256"
        }
      ],
      "name": "isTokenIdAbleToWithdraw",
      "outputs": [
        {
          "internalType": "bool",
          "name": "",
          "type": "bool"
        }
      ],
      "stateMutability": "view",
      "type": "function"
    },
    {
      "inputs": [
        {
          "internalType": "address",
          "name": "",
          "type": "address"
        }
      ],
      "name": "lastWithdrawal",
      "outputs": [
        {
          "internalType": "uint256",
          "name": "",
          "type": "uint256"
        }
      ],
      "stateMutability": "view",
      "type": "function"
    },
    {
      "inputs": [
        {
          "internalType": "uint256",
          "name": "",
          "type": "uint256"
        }
      ],
      "name": "lastWithdrawalByTokenId",
      "outputs": [
        {
          "internalType": "uint256",
          "name": "",
          "type": "uint256"
        }
      ],
      "stateMutability": "view",
      "type": "function"
    },
    {
      "inputs": [],
      "name": "owner",
      "outputs": [
        {
          "internalType": "address",
          "name": "",
          "type": "address"
        }
      ],
      "stateMutability": "view",
      "type": "function"
    },
    {
      "inputs": [],
      "name": "pendingDefaultAdmin",
      "outputs": [
        {
          "internalType": "address",
          "name": "newAdmin",
          "type": "address"
        },
        {
          "internalType": "uint48",
          "name": "schedule",
          "type": "uint48"
        }
      ],
      "stateMutability": "view",
      "type": "function"
    },
    {
      "inputs": [],
      "name": "pendingDefaultAdminDelay",
      "outputs": [
        {
          "internalType": "uint48",
          "name": "newDelay",
          "type": "uint48"
        },
        {
          "internalType": "uint48",
          "name": "schedule",
          "type": "uint48"
        }
      ],
      "stateMutability": "view",
      "type": "function"
    },
    {
      "inputs": [
        {
          "internalType": "address",
          "name": "_user",
          "type": "address"
        },
        {
          "internalType": "uint256",
          "name": "_tokenId",
          "type": "uint256"
        }
      ],
      "name": "recordWithdrawal",
      "outputs": [],
      "stateMutability": "nonpayable",
      "type": "function"
    },
    {
      "inputs": [
        {
          "internalType": "address",
          "name": "_lockAddress",
          "type": "address"
        }
      ],
      "name": "removeLock",
      "outputs": [],
      "stateMutability": "nonpayable",
      "type": "function"
    },
    {
      "inputs": [
        {
          "internalType": "bytes32",
          "name": "role",
          "type": "bytes32"
        },
        {
          "internalType": "address",
          "name": "account",
          "type": "address"
        }
      ],
      "name": "renounceRole",
      "outputs": [],
      "stateMutability": "nonpayable",
      "type": "function"
    },
    {
      "inputs": [
        {
          "internalType": "bytes32",
          "name": "role",
          "type": "bytes32"
        },
        {
          "internalType": "address",
          "name": "account",
          "type": "address"
        }
      ],
      "name": "revokeRole",
      "outputs": [],
      "stateMutability": "nonpayable",
      "type": "function"
    },
    {
      "inputs": [
        {
          "internalType": "address",
          "name": "account",
          "type": "address"
        }
      ],
      "name": "revokeWithdrawalRecorderRole",
      "outputs": [],
      "stateMutability": "nonpayable",
      "type": "function"
    },
    {
      "inputs": [],
      "name": "rollbackDefaultAdminDelay",
      "outputs": [],
      "stateMutability": "nonpayable",
      "type": "function"
    },
    {
      "inputs": [
        {
          "internalType": "uint256",
          "name": "_newCoolDown",
          "type": "uint256"
        }
      ],
      "name": "setCoolDown",
      "outputs": [],
      "stateMutability": "nonpayable",
      "type": "function"
    },
    {
      "inputs": [
        {
          "internalType": "uint256",
          "name": "_version",
          "type": "uint256"
        },
        {
          "internalType": "address",
          "name": "_ethRwandaHackerOnboardAddress",
          "type": "address"
        }
      ],
      "name": "setETHRwandaHackerOnboardAtVersion",
      "outputs": [],
      "stateMutability": "nonpayable",
      "type": "function"
    },
    {
      "inputs": [
        {
          "internalType": "address",
          "name": "_newFaucetWalletAddress",
          "type": "address"
        }
      ],
      "name": "setFaucetWalletAddress",
      "outputs": [],
      "stateMutability": "nonpayable",
      "type": "function"
    },
    {
      "inputs": [
        {
          "internalType": "bytes4",
          "name": "interfaceId",
          "type": "bytes4"
        }
      ],
      "name": "supportsInterface",
      "outputs": [
        {
          "internalType": "bool",
          "name": "",
          "type": "bool"
        }
      ],
      "stateMutability": "view",
      "type": "function"
    },
    {
      "inputs": [
        {
          "internalType": "address",
          "name": "_to",
          "type": "address"
        }
      ],
      "name": "withdraw",
      "outputs": [],
      "stateMutability": "nonpayable",
      "type": "function"
    },
    {
      "stateMutability": "payable",
      "type": "receive"
    }
  ],
  "transactionHash": "0xe867aaacfc0cb0abaa89a9f60c42ac427b137f020e3126883e865ffb2c2a4492",
  "args": [
    "0xd443188B33a13A24F63AC3A49d54DB97cf64349A",
    1,
    "0x6a36A9F5aDF57655E8806bE5675C8c3Be55F92cF",
    "0xd443188B33a13A24F63AC3A49d54DB97cf64349A"
  ],
  "numDeployments": 1,
  "solcInputHash": "d7e258c4bfd8acf23136af9013c33313",
  "bytecode": "0x60a0604052620151806003553480156200001857600080fd5b5060405162002349380380620023498339810160408190526200003b9162000221565b6000846001600160a01b0381166200006d57604051636116401160e11b81526000600482015260240160405180910390fd5b600180546001600160d01b0316600160d01b65ffffffffffff85160217905562000099600082620000e0565b5050506001600160a01b0393841660805260009283526008602052604090922080549184166001600160a01b03199283161790556005805492909316911617905562000275565b60008262000141576000620000fd6002546001600160a01b031690565b6001600160a01b0316146200012557604051631fe1e13d60e11b815260040160405180910390fd5b600280546001600160a01b0319166001600160a01b0384161790555b6200014d838362000156565b90505b92915050565b6000828152602081815260408083206001600160a01b038516845290915281205460ff16620001fb576000838152602081815260408083206001600160a01b03861684529091529020805460ff19166001179055620001b23390565b6001600160a01b0316826001600160a01b0316847f2f8788117e7eff1d82e926ec794901d17c78024a50270940304540a733656f0d60405160405180910390a450600162000150565b50600062000150565b80516001600160a01b03811681146200021c57600080fd5b919050565b600080600080608085870312156200023857600080fd5b620002438562000204565b9350602085015192506200025a6040860162000204565b91506200026a6060860162000204565b905092959194509250565b6080516120b862000291600039600061035001526120b86000f3fe60806040526004361061026b5760003560e01c80638a3311b311610144578063cc8463c8116100b6578063d547741f1161007a578063d547741f146107ab578063d602b9fd146107cb578063d9147bcb146107e0578063ebe6c9ff14610800578063fa17bb751461082d578063ffa1ad741461084d57600080fd5b8063cc8463c81461070f578063cd93ceff14610724578063cefc142914610746578063cf6eefb71461075b578063d32293431461079657600080fd5b8063a217fddf11610108578063a217fddf14610664578063abd6dfb014610679578063b8fcf78214610699578063c064a9fe146106af578063c522f74c146106cf578063cb599863146106ef57600080fd5b80638a3311b3146105a55780638da5cb5b146105c557806391d14854146105da5780639dba5ec8146105fa578063a1eda53c1461063057600080fd5b8063407fe72f116101dd578063634e93da116101a1578063634e93da146104e7578063649a5ec71461050757806378dfdc0e146105275780637c56687a1461054757806384ef8ffc14610567578063882f327b1461058557600080fd5b8063407fe72f1461043a57806347fcae831461045a5780634a387bef1461048757806351cff8d9146104a75780635632671e146104c757600080fd5b80631b2df8501161022f5780631b2df8501461033e578063248a9ca31461038a578063274b741e146103ba5780632baf7e0e146103da5780632f2ff15d146103fa57806336568abe1461041a57600080fd5b806301ffc9a714610277578063022d63fb146102ac5780630aa6220b146102d55780630f4d741a146102ec57806312c514751461031c57600080fd5b3661027257005b600080fd5b34801561028357600080fd5b50610297610292366004611d80565b610862565b60405190151581526020015b60405180910390f35b3480156102b857600080fd5b50620697805b60405165ffffffffffff90911681526020016102a3565b3480156102e157600080fd5b506102ea61088d565b005b3480156102f857600080fd5b5061030e60008051602061204383398151915281565b6040519081526020016102a3565b34801561032857600080fd5b506103316108a3565b6040516102a39190611daa565b34801561034a57600080fd5b506103727f000000000000000000000000000000000000000000000000000000000000000081565b6040516001600160a01b0390911681526020016102a3565b34801561039657600080fd5b5061030e6103a5366004611df7565b60009081526020819052604090206001015490565b3480156103c657600080fd5b506102ea6103d5366004611e2c565b610905565b3480156103e657600080fd5b50600554610372906001600160a01b031681565b34801561040657600080fd5b506102ea610415366004611e47565b6109a3565b34801561042657600080fd5b506102ea610435366004611e47565b6109cf565b34801561044657600080fd5b506102ea610455366004611e2c565b610a7b565b34801561046657600080fd5b5061030e610475366004611df7565b60076020526000908152604090205481565b34801561049357600080fd5b506102ea6104a2366004611e2c565b610b17565b3480156104b357600080fd5b506102ea6104c2366004611e2c565b610c79565b3480156104d357600080fd5b506102976104e2366004611df7565b610d81565b3480156104f357600080fd5b506102ea610502366004611e2c565b610da7565b34801561051357600080fd5b506102ea610522366004611e73565b610dbb565b34801561053357600080fd5b506102ea610542366004611e9b565b610dcf565b34801561055357600080fd5b506102ea610562366004611df7565b610f59565b34801561057357600080fd5b506002546001600160a01b0316610372565b34801561059157600080fd5b506102ea6105a0366004611e2c565b610fae565b3480156105b157600080fd5b506102976105c0366004611e47565b6110be565b3480156105d157600080fd5b50610372611178565b3480156105e657600080fd5b506102976105f5366004611e47565b611191565b34801561060657600080fd5b50610372610615366004611df7565b6008602052600090815260409020546001600160a01b031681565b34801561063c57600080fd5b506106456111ba565b6040805165ffffffffffff9384168152929091166020830152016102a3565b34801561067057600080fd5b5061030e600081565b34801561068557600080fd5b50610297610694366004611e2c565b61120e565b3480156106a557600080fd5b5061030e60035481565b3480156106bb57600080fd5b506102976106ca366004611e2c565b6112e9565b3480156106db57600080fd5b506102ea6106ea366004611e47565b611312565b3480156106fb57600080fd5b5061037261070a366004611e2c565b6113ba565b34801561071b57600080fd5b506102be611498565b34801561073057600080fd5b5061030e60008051602061206383398151915281565b34801561075257600080fd5b506102ea6114f7565b34801561076757600080fd5b50610770611537565b604080516001600160a01b03909316835265ffffffffffff9091166020830152016102a3565b3480156107a257600080fd5b5061030e600a81565b3480156107b757600080fd5b506102ea6107c6366004611e47565b611558565b3480156107d757600080fd5b506102ea611580565b3480156107ec57600080fd5b506102ea6107fb366004611e2c565b611593565b34801561080c57600080fd5b5061030e61081b366004611e2c565b60066020526000908152604090205481565b34801561083957600080fd5b506102ea610848366004611f10565b611602565b34801561085957600080fd5b5061030e600181565b60006001600160e01b031982166318a4c3c360e11b14806108875750610887826116bb565b92915050565b6000610898816116f0565b6108a06116fa565b50565b606060048054806020026020016040519081016040528092919081815260200182805480156108fb57602002820191906000526020600020905b81546001600160a01b031681526001909101906020018083116108dd575b5050505050905090565b600080516020612043833981519152600090815260205260008051602061202383398151915254610937905b33611191565b610954576040516375443aa160e11b815260040160405180910390fd5b61096c600080516020612063833981519152826109a3565b6040516001600160a01b038216907f1c6a012dd66655260edf64196d2e05cb8f935251f6498305ec88680114b65e9e90600090a250565b816109c157604051631fe1e13d60e11b815260040160405180910390fd5b6109cb8282611707565b5050565b811580156109ea57506002546001600160a01b038281169116145b15610a71576000806109fa611537565b90925090506001600160a01b038216151580610a1c575065ffffffffffff8116155b80610a2f57504265ffffffffffff821610155b15610a5c576040516319ca5ebb60e01b815265ffffffffffff821660048201526024015b60405180910390fd5b50506001805465ffffffffffff60a01b191690555b6109cb8282611732565b600080516020612043833981519152600090815260205260008051602061202383398151915254610aab90610931565b610ac8576040516375443aa160e11b815260040160405180910390fd5b610ae060008051602061206383398151915282611558565b6040516001600160a01b038216907f93c4b008adc5c895fac7841a449310258f51737b0193d648e06e9f87dd44969c90600090a250565b600080516020612043833981519152600090815260205260008051602061202383398151915254610b4790610931565b610b64576040516375443aa160e11b815260040160405180910390fd5b6000610b6f82611765565b6004549091508110610b945760405163dec1c80b60e01b815260040160405180910390fd5b60048054610ba490600190611f50565b81548110610bb457610bb4611f63565b600091825260209091200154600480546001600160a01b039092169183908110610be057610be0611f63565b9060005260206000200160006101000a8154816001600160a01b0302191690836001600160a01b031602179055506004805480610c1f57610c1f611f79565b600082815260208120820160001990810180546001600160a01b03191690559091019091556040516001600160a01b038416917f0f83685524051a44165356f0ea9cb06be27840d1c5640699ce9576b83f6a7a7a91a25050565b600080516020612043833981519152600090815260205260008051602061202383398151915254610ca990610931565b610cc6576040516375443aa160e11b815260040160405180910390fd5b6000816001600160a01b03164760405160006040518083038185875af1925050503d8060008114610d13576040519150601f19603f3d011682016040523d82523d6000602084013e610d18565b606091505b5050905080610d3a5760405163b12d13eb60e01b815260040160405180910390fd5b816001600160a01b03167f0d0f2791db343730330b95077f3f049f214e9b533c14f6c62813650586d65fb747604051610d7591815260200190565b60405180910390a25050565b600354600082815260076020526040812054909190610da09042611f50565b1192915050565b6000610db2816116f0565b6109cb826117cc565b6000610dc6816116f0565b6109cb82611838565b600080516020612043833981519152600090815260205260008051602061202383398151915254610dff90610931565b610e1c576040516375443aa160e11b815260040160405180910390fd5b600454600a90610e2d908390611f8f565b1115610e4c5760405163133cbc4f60e01b815260040160405180910390fd5b60005b81811015610f5457610e86838383818110610e6c57610e6c611f63565b9050602002016020810190610e819190611e2c565b6118a8565b610f42576004838383818110610e9e57610e9e611f63565b9050602002016020810190610eb39190611e2c565b81546001810183556000928352602090922090910180546001600160a01b0319166001600160a01b03909216919091179055828282818110610ef757610ef7611f63565b9050602002016020810190610f0c9190611e2c565b6001600160a01b03167f767d0ef6430026bcd36e0d0967ba7a148150acd358cb782bf4f829f0395c7f9660405160405180910390a25b80610f4c81611fa2565b915050610e4f565b505050565b60008080526020527fad3228b676f7d3cd4284a5443f17f1962b36e491b30a40b2405849e597ba5fb654610f8c90610931565b610fa95760405163b04e66ad60e01b815260040160405180910390fd5b600355565b600080516020612043833981519152600090815260205260008051602061202383398151915254610fde90610931565b610ffb576040516375443aa160e11b815260040160405180910390fd5b6004546009190161101f5760405163133cbc4f60e01b815260040160405180910390fd5b611028816118a8565b1561104657604051636424484f60e11b815260040160405180910390fd5b6004805460018101825560009182527f8a35acfbc15ff81a39ae7d344fd709f28e8600b4aa8c65c6b64bfe7fe36bd19b0180546001600160a01b0319166001600160a01b03841690811790915560405190917f767d0ef6430026bcd36e0d0967ba7a148150acd358cb782bf4f829f0395c7f9691a250565b6000828152600860205260408120546001600160a01b03166110f357604051630309e28160e21b815260040160405180910390fd5b60008381526008602052604090819020549051600162bf7abd60e01b031981526001600160a01b0384811660048301529091169063ff40854390602401602060405180830381865afa15801561114d573d6000803e3d6000fd5b505050506040513d601f19601f820116820180604052508101906111719190611fbb565b9392505050565b600061118c6002546001600160a01b031690565b905090565b6000918252602082815260408084206001600160a01b0393909316845291905290205460ff1690565b600254600090600160d01b900465ffffffffffff1680151580156111e657504265ffffffffffff821610155b6111f257600080611206565b600254600160a01b900465ffffffffffff16815b915091509091565b600454600090810361122257506000919050565b60005b6004548110156112e05760006004828154811061124457611244611f63565b600091825260209091200154604051631b63a96d60e21b81526001600160a01b03868116600483015290911691508190636d8ea5b490602401602060405180830381865afa15801561129a573d6000803e3d6000fd5b505050506040513d601f19601f820116820180604052508101906112be9190611fbb565b156112cd575060019392505050565b50806112d881611fa2565b915050611225565b50600092915050565b6003546001600160a01b038216600090815260066020526040812054909190610da09042611f50565b60008051602061204383398151915260009081526020526000805160206120238339815191525461134290610931565b61135f576040516375443aa160e11b815260040160405180910390fd5b60008281526008602090815260409182902080546001600160a01b0319166001600160a01b03851690811790915591518481527f5340f7821c2e5325406ccc77291103ddc53fb98fef93c1db2a2ebd9192df49689101610d75565b6000805b6004548110156112e057600481815481106113db576113db611f63565b600091825260209091200154604051631b63a96d60e21b81526001600160a01b03858116600483015290911690636d8ea5b490602401602060405180830381865afa15801561142e573d6000803e3d6000fd5b505050506040513d601f19601f820116820180604052508101906114529190611fbb565b15611486576004818154811061146a5761146a611f63565b6000918252602090912001546001600160a01b03169392505050565b8061149081611fa2565b9150506113be565b600254600090600160d01b900465ffffffffffff1680151580156114c357504265ffffffffffff8216105b6114de57600154600160d01b900465ffffffffffff166114f1565b600254600160a01b900465ffffffffffff165b91505090565b6000611501611537565b509050336001600160a01b0382161461152f57604051636116401160e11b8152336004820152602401610a53565b6108a0611908565b6001546001600160a01b03811691600160a01b90910465ffffffffffff1690565b8161157657604051631fe1e13d60e11b815260040160405180910390fd5b6109cb82826119a1565b600061158b816116f0565b6108a06119c6565b6000805160206120438339815191526000908152602052600080516020612023833981519152546115c390610931565b6115e0576040516375443aa160e11b815260040160405180910390fd5b600580546001600160a01b0319166001600160a01b0392909216919091179055565b60008051602061206383398151915260009081526020527f8b979dc67e1f5e1fcc5b220e7f32c265e54130b5e9cc6a2ea4af64f9ca9e0b7e5461164490610931565b6116615760405163abeef50560e01b815260040160405180910390fd5b6001600160a01b038216600081815260066020908152604080832042908190558584526007835292819020839055519182527f6e5e27e9cf36c3541492598af31ebab8e0da084eec479557bd53efe0ceeb29f49101610d75565b60006001600160e01b03198216637965db0b60e01b148061088757506301ffc9a760e01b6001600160e01b0319831614610887565b6108a081336119d1565b611705600080611a0a565b565b600082815260208190526040902060010154611722816116f0565b61172c8383611aca565b50505050565b6001600160a01b038116331461175b5760405163334bd91960e11b815260040160405180910390fd5b610f548282611b32565b6000805b6004548110156117c257826001600160a01b03166004828154811061179057611790611f63565b6000918252602090912001546001600160a01b0316036117b05792915050565b806117ba81611fa2565b915050611769565b5050600454919050565b60006117d6611498565b6117df42611b6f565b6117e99190611fdd565b90506117f58282611ba6565b60405165ffffffffffff821681526001600160a01b038316907f3377dc44241e779dd06afab5b788a35ca5f3b778836e2990bdb26a2a4b2e5ed690602001610d75565b600061184382611c25565b61184c42611b6f565b6118569190611fdd565b90506118628282611a0a565b6040805165ffffffffffff8085168252831660208201527ff1038c18cf84a56e432fdbfaf746924b7ea511dfe03a6506a0ceba4888788d9b910160405180910390a15050565b6000805b6004548110156112e057826001600160a01b0316600482815481106118d3576118d3611f63565b6000918252602090912001546001600160a01b0316036118f65750600192915050565b8061190081611fa2565b9150506118ac565b600080611913611537565b915091506119288165ffffffffffff16151590565b158061193c57504265ffffffffffff821610155b15611964576040516319ca5ebb60e01b815265ffffffffffff82166004820152602401610a53565b611980600061197b6002546001600160a01b031690565b611b32565b5061198c600083611aca565b5050600180546001600160d01b031916905550565b6000828152602081905260409020600101546119bc816116f0565b61172c8383611b32565b611705600080611ba6565b6119db8282611191565b6109cb5760405163e2517d3f60e01b81526001600160a01b038216600482015260248101839052604401610a53565b600254600160d01b900465ffffffffffff168015611a8d574265ffffffffffff82161015611a6357600254600180546001600160d01b0316600160a01b90920465ffffffffffff16600160d01b02919091179055611a8d565b6040517f2b1fa2edafe6f7b9e97c1a9e0c3660e645beb2dcaa2d45bdbf9beaf5472e1ec590600090a15b50600280546001600160a01b0316600160a01b65ffffffffffff948516026001600160d01b031617600160d01b9290931691909102919091179055565b600082611b28576000611ae56002546001600160a01b031690565b6001600160a01b031614611b0c57604051631fe1e13d60e11b815260040160405180910390fd5b600280546001600160a01b0319166001600160a01b0384161790555b6111718383611c6d565b600082158015611b4f57506002546001600160a01b038381169116145b15611b6557600280546001600160a01b03191690555b6111718383611cff565b600065ffffffffffff821115611ba2576040516306dfcc6560e41b81526030600482015260248101839052604401610a53565b5090565b6000611bb0611537565b6001805465ffffffffffff8616600160a01b026001600160d01b03199091166001600160a01b038816171790559150611bf290508165ffffffffffff16151590565b15610f54576040517f8886ebfc4259abdbc16601dd8fb5678e54878f47b3c34836cfc51154a960510990600090a1505050565b600080611c30611498565b90508065ffffffffffff168365ffffffffffff1611611c5857611c538382612003565b611171565b61117165ffffffffffff841662069780611d6a565b6000611c798383611191565b611cf7576000838152602081815260408083206001600160a01b03861684529091529020805460ff19166001179055611caf3390565b6001600160a01b0316826001600160a01b0316847f2f8788117e7eff1d82e926ec794901d17c78024a50270940304540a733656f0d60405160405180910390a4506001610887565b506000610887565b6000611d0b8383611191565b15611cf7576000838152602081815260408083206001600160a01b0386168085529252808320805460ff1916905551339286917ff6391f5c32d9c69d2a47ea670b442974b53935d1edc7fd64eb21e047a839171b9190a4506001610887565b6000818310611d795781611171565b5090919050565b600060208284031215611d9257600080fd5b81356001600160e01b03198116811461117157600080fd5b6020808252825182820181905260009190848201906040850190845b81811015611deb5783516001600160a01b031683529284019291840191600101611dc6565b50909695505050505050565b600060208284031215611e0957600080fd5b5035919050565b80356001600160a01b0381168114611e2757600080fd5b919050565b600060208284031215611e3e57600080fd5b61117182611e10565b60008060408385031215611e5a57600080fd5b82359150611e6a60208401611e10565b90509250929050565b600060208284031215611e8557600080fd5b813565ffffffffffff8116811461117157600080fd5b60008060208385031215611eae57600080fd5b823567ffffffffffffffff80821115611ec657600080fd5b818501915085601f830112611eda57600080fd5b813581811115611ee957600080fd5b8660208260051b8501011115611efe57600080fd5b60209290920196919550909350505050565b60008060408385031215611f2357600080fd5b611f2c83611e10565b946020939093013593505050565b634e487b7160e01b600052601160045260246000fd5b8181038181111561088757610887611f3a565b634e487b7160e01b600052603260045260246000fd5b634e487b7160e01b600052603160045260246000fd5b8082018082111561088757610887611f3a565b600060018201611fb457611fb4611f3a565b5060010190565b600060208284031215611fcd57600080fd5b8151801515811461117157600080fd5b65ffffffffffff818116838216019080821115611ffc57611ffc611f3a565b5092915050565b65ffffffffffff828116828216039080821115611ffc57611ffc611f3a56fe88e503c2aa00784585f1035178d2f21b8afe24e1a5d65b01a28cb10e78c284935ff8452a567af8e692d0608c7a8816f746446b757de3aecfd791fd4a19d2cd352fa599c5243072345f9c4ed5d196cc80caf843570a99cd1a84bfff485fa7aafda26469706673582212207090d5bfec800a333a4bdffd601584fd564e89427dbe6a88cfb5f885e50c423c64736f6c63430008140033",
  "devdoc": {
    "errors": {
      "AccessControlBadConfirmation()": [
        {
          "details": "The caller of a function is not the expected one. NOTE: Don't confuse with {AccessControlUnauthorizedAccount}."
        }
      ],
      "AccessControlEnforcedDefaultAdminDelay(uint48)": [
        {
          "details": "The delay for transferring the default admin delay is enforced and the operation must wait until `schedule`. NOTE: `schedule` can be 0 indicating there's no transfer scheduled."
        }
      ],
      "AccessControlEnforcedDefaultAdminRules()": [
        {
          "details": "At least one of the following rules was violated: - The `DEFAULT_ADMIN_ROLE` must only be managed by itself. - The `DEFAULT_ADMIN_ROLE` must only be held by one account at the time. - Any `DEFAULT_ADMIN_ROLE` transfer must be in two delayed steps."
        }
      ],
      "AccessControlInvalidDefaultAdmin(address)": [
        {
          "details": "The new default admin is not a valid default admin."
        }
      ],
      "AccessControlUnauthorizedAccount(address,bytes32)": [
        {
          "details": "The `account` is missing a role."
        }
      ],
      "SafeCastOverflowedUintDowncast(uint8,uint256)": [
        {
          "details": "Value doesn't fit in an uint of `bits` size."
        }
      ]
    },
    "events": {
      "DefaultAdminDelayChangeCanceled()": {
        "details": "Emitted when a {pendingDefaultAdminDelay} is reset if its schedule didn't pass."
      },
      "DefaultAdminDelayChangeScheduled(uint48,uint48)": {
        "details": "Emitted when a {defaultAdminDelay} change is started, setting `newDelay` as the next delay to be applied between default admin transfer after `effectSchedule` has passed."
      },
      "DefaultAdminTransferCanceled()": {
        "details": "Emitted when a {pendingDefaultAdmin} is reset if it was never accepted, regardless of its schedule."
      },
      "DefaultAdminTransferScheduled(address,uint48)": {
        "details": "Emitted when a {defaultAdmin} transfer is started, setting `newAdmin` as the next address to become the {defaultAdmin} by calling {acceptDefaultAdminTransfer} only after `acceptSchedule` passes."
      },
      "RoleAdminChanged(bytes32,bytes32,bytes32)": {
        "details": "Emitted when `newAdminRole` is set as ``role``'s admin role, replacing `previousAdminRole` `DEFAULT_ADMIN_ROLE` is the starting admin for all roles, despite {RoleAdminChanged} not being emitted signaling this."
      },
      "RoleGranted(bytes32,address,address)": {
        "details": "Emitted when `account` is granted `role`. `sender` is the account that originated the contract call, an admin role bearer except when using {AccessControl-_setupRole}."
      },
      "RoleRevoked(bytes32,address,address)": {
        "details": "Emitted when `account` is revoked `role`. `sender` is the account that originated the contract call:   - if using `revokeRole`, it is the admin role bearer   - if using `renounceRole`, it is the role bearer (i.e. `account`)"
      }
    },
    "kind": "dev",
    "methods": {
      "acceptDefaultAdminTransfer()": {
        "details": "Completes a {defaultAdmin} transfer previously started with {beginDefaultAdminTransfer}. After calling the function: - `DEFAULT_ADMIN_ROLE` should be granted to the caller. - `DEFAULT_ADMIN_ROLE` should be revoked from the previous holder. - {pendingDefaultAdmin} should be reset to zero values. Requirements: - Only can be called by the {pendingDefaultAdmin}'s `newAdmin`. - The {pendingDefaultAdmin}'s `acceptSchedule` should've passed."
      },
      "addLock(address)": {
        "details": "Adds a single lock address to the array.",
        "params": {
          "_lockAddress": "The address of the lock to add."
        }
      },
      "batchAddLocks(address[])": {
        "details": "Adds multiple lock addresses to the array, skipping already added addresses.",
        "params": {
          "_lockAddresses": "The addresses of the locks to add. "
        }
      },
      "beginDefaultAdminTransfer(address)": {
        "details": "Starts a {defaultAdmin} transfer by setting a {pendingDefaultAdmin} scheduled for acceptance after the current timestamp plus a {defaultAdminDelay}. Requirements: - Only can be called by the current {defaultAdmin}. Emits a DefaultAdminRoleChangeStarted event."
      },
      "cancelDefaultAdminTransfer()": {
        "details": "Cancels a {defaultAdmin} transfer previously started with {beginDefaultAdminTransfer}. A {pendingDefaultAdmin} not yet accepted can also be cancelled with this function. Requirements: - Only can be called by the current {defaultAdmin}. May emit a DefaultAdminTransferCanceled event."
      },
      "changeDefaultAdminDelay(uint48)": {
        "details": "Initiates a {defaultAdminDelay} update by setting a {pendingDefaultAdminDelay} scheduled for getting into effect after the current timestamp plus a {defaultAdminDelay}. This function guarantees that any call to {beginDefaultAdminTransfer} done between the timestamp this method is called and the {pendingDefaultAdminDelay} effect schedule will use the current {defaultAdminDelay} set before calling. The {pendingDefaultAdminDelay}'s effect schedule is defined in a way that waiting until the schedule and then calling {beginDefaultAdminTransfer} with the new delay will take at least the same as another {defaultAdmin} complete transfer (including acceptance). The schedule is designed for two scenarios: - When the delay is changed for a larger one the schedule is `block.timestamp + newDelay` capped by {defaultAdminDelayIncreaseWait}. - When the delay is changed for a shorter one, the schedule is `block.timestamp + (current delay - new delay)`. A {pendingDefaultAdminDelay} that never got into effect will be canceled in favor of a new scheduled change. Requirements: - Only can be called by the current {defaultAdmin}. Emits a DefaultAdminDelayChangeScheduled event and may emit a DefaultAdminDelayChangeCanceled event."
      },
      "defaultAdmin()": {
        "details": "Returns the address of the current `DEFAULT_ADMIN_ROLE` holder."
      },
      "defaultAdminDelay()": {
        "details": "Returns the delay required to schedule the acceptance of a {defaultAdmin} transfer started. This delay will be added to the current timestamp when calling {beginDefaultAdminTransfer} to set the acceptance schedule. NOTE: If a delay change has been scheduled, it will take effect as soon as the schedule passes, making this function returns the new delay. See {changeDefaultAdminDelay}."
      },
      "defaultAdminDelayIncreaseWait()": {
        "details": "Maximum time in seconds for an increase to {defaultAdminDelay} (that is scheduled using {changeDefaultAdminDelay}) to take effect. Default to 5 days. When the {defaultAdminDelay} is scheduled to be increased, it goes into effect after the new delay has passed with the purpose of giving enough time for reverting any accidental change (i.e. using milliseconds instead of seconds) that may lock the contract. However, to avoid excessive schedules, the wait is capped by this function and it can be overrode for a custom {defaultAdminDelay} increase scheduling. IMPORTANT: Make sure to add a reasonable amount of time while overriding this value, otherwise, there's a risk of setting a high new delay that goes into effect almost immediately without the possibility of human intervention in the case of an input error (eg. set milliseconds instead of seconds)."
      },
      "getFirstValidKeyLockAddress(address)": {
        "details": "Returns the address of the first lock for which the user has a valid key.",
        "params": {
          "user": "The address of the user."
        },
        "returns": {
          "_0": "The address of the first valid lock, or address(0) if none found."
        }
      },
      "getLockAddresses()": {
        "details": "Gets the list of lock addresses.",
        "returns": {
          "_0": "An array of lock addresses."
        }
      },
      "getRoleAdmin(bytes32)": {
        "details": "Returns the admin role that controls `role`. See {grantRole} and {revokeRole}. To change a role's admin, use {_setRoleAdmin}."
      },
      "grantRole(bytes32,address)": {
        "details": "See {AccessControl-grantRole}. Reverts for `DEFAULT_ADMIN_ROLE`."
      },
      "grantWithdrawalRecorderRole(address)": {
        "details": "Grants the WITHDRAWAL_RECORDER_ROLE to an address.      Can only be called by addresses with the admin role.",
        "params": {
          "account": "The address to grant the role to."
        }
      },
      "hasRole(bytes32,address)": {
        "details": "Returns `true` if `account` has been granted `role`."
      },
      "hasValidKey(address)": {
        "details": "Checks if a user has a valid key to any of the locks.",
        "params": {
          "user": "The address of the user."
        },
        "returns": {
          "_0": "True if the user has a valid key, false otherwise."
        }
      },
      "isAbleToWithdraw(address)": {
        "details": "Checks if a user is able to withdraw based on the 24-hour cooldown.",
        "params": {
          "user": "The address of the user."
        },
        "returns": {
          "_0": "True if the user can withdraw, false otherwise."
        }
      },
      "owner()": {
        "details": "See {IERC5313-owner}."
      },
      "pendingDefaultAdmin()": {
        "details": "Returns a tuple of a `newAdmin` and an accept schedule. After the `schedule` passes, the `newAdmin` will be able to accept the {defaultAdmin} role by calling {acceptDefaultAdminTransfer}, completing the role transfer. A zero value only in `acceptSchedule` indicates no pending admin transfer. NOTE: A zero address `newAdmin` means that {defaultAdmin} is being renounced."
      },
      "pendingDefaultAdminDelay()": {
        "details": "Returns a tuple of `newDelay` and an effect schedule. After the `schedule` passes, the `newDelay` will get into effect immediately for every new {defaultAdmin} transfer started with {beginDefaultAdminTransfer}. A zero value only in `effectSchedule` indicates no pending delay change. NOTE: A zero value only for `newDelay` means that the next {defaultAdminDelay} will be zero after the effect schedule."
      },
      "recordWithdrawal(address,uint256)": {
        "details": "Records the withdrawal by updating the lastWithdrawal timestamp. Can be called by any address with the WITHDRAWAL_RECORDER_ROLE.",
        "params": {
          "_tokenId": "The token ID/ key of the lock.",
          "_user": "The address of the user."
        }
      },
      "removeLock(address)": {
        "details": "Removes a single lock address from the array.",
        "params": {
          "_lockAddress": "The address of the lock to remove."
        }
      },
      "renounceRole(bytes32,address)": {
        "details": "See {AccessControl-renounceRole}. For the `DEFAULT_ADMIN_ROLE`, it only allows renouncing in two steps by first calling {beginDefaultAdminTransfer} to the `address(0)`, so it's required that the {pendingDefaultAdmin} schedule has also passed when calling this function. After its execution, it will not be possible to call `onlyRole(DEFAULT_ADMIN_ROLE)` functions. NOTE: Renouncing `DEFAULT_ADMIN_ROLE` will leave the contract without a {defaultAdmin}, thereby disabling any functionality that is only available for it, and the possibility of reassigning a non-administrated role."
      },
      "revokeRole(bytes32,address)": {
        "details": "See {AccessControl-revokeRole}. Reverts for `DEFAULT_ADMIN_ROLE`."
      },
      "revokeWithdrawalRecorderRole(address)": {
        "details": "Revokes the WITHDRAWAL_RECORDER_ROLE from an address.      Can only be called by addresses with the admin role.",
        "params": {
          "account": "The address to revoke the role from."
        }
      },
      "rollbackDefaultAdminDelay()": {
        "details": "Cancels a scheduled {defaultAdminDelay} change. Requirements: - Only can be called by the current {defaultAdmin}. May emit a DefaultAdminDelayChangeCanceled event."
      },
      "supportsInterface(bytes4)": {
        "details": "See {IERC165-supportsInterface}."
      }
    },
    "version": 1
  },
  "userdoc": {
    "kind": "user",
    "methods": {},
    "version": 1
  },
  "storageLayout": {
    "storage": [
      {
        "astId": 26,
        "contract": "contracts/ETHRwandaCommunityFaucetManager.sol:ETHRwandaCommunityFaucetManager",
        "label": "_roles",
        "offset": 0,
        "slot": "0",
        "type": "t_mapping(t_bytes32,t_struct(RoleData)21_storage)"
      },
      {
        "astId": 400,
        "contract": "contracts/ETHRwandaCommunityFaucetManager.sol:ETHRwandaCommunityFaucetManager",
        "label": "_pendingDefaultAdmin",
        "offset": 0,
        "slot": "1",
        "type": "t_address"
      },
      {
        "astId": 402,
        "contract": "contracts/ETHRwandaCommunityFaucetManager.sol:ETHRwandaCommunityFaucetManager",
        "label": "_pendingDefaultAdminSchedule",
        "offset": 20,
        "slot": "1",
        "type": "t_uint48"
      },
      {
        "astId": 404,
        "contract": "contracts/ETHRwandaCommunityFaucetManager.sol:ETHRwandaCommunityFaucetManager",
        "label": "_currentDelay",
        "offset": 26,
        "slot": "1",
        "type": "t_uint48"
      },
      {
        "astId": 406,
        "contract": "contracts/ETHRwandaCommunityFaucetManager.sol:ETHRwandaCommunityFaucetManager",
        "label": "_currentDefaultAdmin",
        "offset": 0,
        "slot": "2",
        "type": "t_address"
      },
      {
        "astId": 408,
        "contract": "contracts/ETHRwandaCommunityFaucetManager.sol:ETHRwandaCommunityFaucetManager",
        "label": "_pendingDelay",
        "offset": 20,
        "slot": "2",
        "type": "t_uint48"
      },
      {
        "astId": 410,
        "contract": "contracts/ETHRwandaCommunityFaucetManager.sol:ETHRwandaCommunityFaucetManager",
        "label": "_pendingDelaySchedule",
        "offset": 26,
        "slot": "2",
        "type": "t_uint48"
      },
      {
        "astId": 4130,
        "contract": "contracts/ETHRwandaCommunityFaucetManager.sol:ETHRwandaCommunityFaucetManager",
        "label": "COOL_DOWN",
        "offset": 0,
        "slot": "3",
        "type": "t_uint256"
      },
      {
        "astId": 4136,
        "contract": "contracts/ETHRwandaCommunityFaucetManager.sol:ETHRwandaCommunityFaucetManager",
        "label": "lockAddresses",
        "offset": 0,
        "slot": "4",
        "type": "t_array(t_address)dyn_storage"
      },
      {
        "astId": 4138,
        "contract": "contracts/ETHRwandaCommunityFaucetManager.sol:ETHRwandaCommunityFaucetManager",
        "label": "faucetWalletAddress",
        "offset": 0,
        "slot": "5",
        "type": "t_address"
      },
      {
        "astId": 4142,
        "contract": "contracts/ETHRwandaCommunityFaucetManager.sol:ETHRwandaCommunityFaucetManager",
        "label": "lastWithdrawal",
        "offset": 0,
        "slot": "6",
        "type": "t_mapping(t_address,t_uint256)"
      },
      {
        "astId": 4146,
        "contract": "contracts/ETHRwandaCommunityFaucetManager.sol:ETHRwandaCommunityFaucetManager",
        "label": "lastWithdrawalByTokenId",
        "offset": 0,
        "slot": "7",
        "type": "t_mapping(t_uint256,t_uint256)"
      },
      {
        "astId": 4150,
        "contract": "contracts/ETHRwandaCommunityFaucetManager.sol:ETHRwandaCommunityFaucetManager",
        "label": "ETHRwandaHackerOnboardVersions",
        "offset": 0,
        "slot": "8",
        "type": "t_mapping(t_uint256,t_address)"
      }
    ],
    "types": {
      "t_address": {
        "encoding": "inplace",
        "label": "address",
        "numberOfBytes": "20"
      },
      "t_array(t_address)dyn_storage": {
        "base": "t_address",
        "encoding": "dynamic_array",
        "label": "address[]",
        "numberOfBytes": "32"
      },
      "t_bool": {
        "encoding": "inplace",
        "label": "bool",
        "numberOfBytes": "1"
      },
      "t_bytes32": {
        "encoding": "inplace",
        "label": "bytes32",
        "numberOfBytes": "32"
      },
      "t_mapping(t_address,t_bool)": {
        "encoding": "mapping",
        "key": "t_address",
        "label": "mapping(address => bool)",
        "numberOfBytes": "32",
        "value": "t_bool"
      },
      "t_mapping(t_address,t_uint256)": {
        "encoding": "mapping",
        "key": "t_address",
        "label": "mapping(address => uint256)",
        "numberOfBytes": "32",
        "value": "t_uint256"
      },
      "t_mapping(t_bytes32,t_struct(RoleData)21_storage)": {
        "encoding": "mapping",
        "key": "t_bytes32",
        "label": "mapping(bytes32 => struct AccessControl.RoleData)",
        "numberOfBytes": "32",
        "value": "t_struct(RoleData)21_storage"
      },
      "t_mapping(t_uint256,t_address)": {
        "encoding": "mapping",
        "key": "t_uint256",
        "label": "mapping(uint256 => address)",
        "numberOfBytes": "32",
        "value": "t_address"
      },
      "t_mapping(t_uint256,t_uint256)": {
        "encoding": "mapping",
        "key": "t_uint256",
        "label": "mapping(uint256 => uint256)",
        "numberOfBytes": "32",
        "value": "t_uint256"
      },
      "t_struct(RoleData)21_storage": {
        "encoding": "inplace",
        "label": "struct AccessControl.RoleData",
        "members": [
          {
            "astId": 18,
            "contract": "contracts/ETHRwandaCommunityFaucetManager.sol:ETHRwandaCommunityFaucetManager",
            "label": "hasRole",
            "offset": 0,
            "slot": "0",
            "type": "t_mapping(t_address,t_bool)"
          },
          {
            "astId": 20,
            "contract": "contracts/ETHRwandaCommunityFaucetManager.sol:ETHRwandaCommunityFaucetManager",
            "label": "adminRole",
            "offset": 0,
            "slot": "1",
            "type": "t_bytes32"
          }
        ],
        "numberOfBytes": "64"
      },
      "t_uint256": {
        "encoding": "inplace",
        "label": "uint256",
        "numberOfBytes": "32"
      },
      "t_uint48": {
        "encoding": "inplace",
        "label": "uint48",
        "numberOfBytes": "6"
      }
    }
  }
}